:020000040800F2
:100000000000022011500008251400082D140008DB
:10001000351400083D1400084514000800000000D5
:100020000000000000000000000000004D14000867
:100030005B14000800000000691400087714000831
:1000400061500008615000086150000861500008CC
:1000500061500008615000086150000861500008BC
:1000600061500008615000086150000861500008AC
:1000700085140008615000086150000861500008B4
:10008000615000086150000861500008615000088C
:100090009914000861500008615000086150000880
:1000A000615000086150000861500008615000086C
:1000B000615000086150000861500008615000085C
:1000C000615000086150000861500008615000084C
:1000D000615000086150000861500008AD1400082C
:1000E000615000086150000861500008615000082C
:1000F000615000086150000861500008615000081C
:10010000615000086150000861500008615000080B
:100110006150000861500008C114000861500008D7
:1001200061500008D51400086150000861500008B3
:1001300061500008615000086150000861500008DB
:1001400061500008E914000861500008615000087F
:1001500061500008FD14000811150008251500085D
:1001600061500008615000086150000861500008AB
:100170006150000861500008615000080000000054
:08018000615000086150000805
:1001880081F0004102E000BF83F0004330B54FEA40
:1001980041044FEA430594EA050F08BF90EA020FAD
:1001A8001FBF54EA000C55EA020C7FEA645C7FEA40
:1001B800655C00F0E2804FEA5454D4EB5555B8BF63
:1001C8006D420CDD2C4480EA020281EA030382EAD4
:1001D800000083EA010180EA020281EA0303362D66
:1001E80088BF30BD11F0004F4FEA01314FF4801C39
:1001F8004CEA113102D0404261EB410113F0004F4B
:100208004FEA03334CEA133302D0524263EB430301
:1002180094EA050F00F0A780A4F10104D5F1200E9F
:100228000DDB02FA0EFC22FA05F2801841F10001FA
:1002380003FA0EF2801843FA05F359410EE0A5F1CE
:1002480020050EF1200E012A03FA0EFC28BF4CF0FF
:10025800020C43FA05F3C01851EBE37101F00045B5
:1002680007D54FF0000EDCF1000C7EEB00006EEBC2
:100278000101B1F5801F1BD3B1F5001F0CD349084C
:100288005FEA30004FEA3C0C04F101044FEA4452A3
:1002980012F5800F80F09A80BCF1004F08BF5FEA2A
:1002A800500C50F1000041EB045141EA050130BD0A
:1002B8005FEA4C0C404141EB0101013C28BFB1F51C
:1002C800801FE9D291F0000F04BF01460020B1FA67
:1002D80081F308BF2033A3F10B03B3F120020CDA3A
:1002E8000C3208DD02F1140CC2F10C0201FA0CF018
:1002F80021FA02F10CE002F11402D8BFC2F1200C7D
:1003080001FA02F120FA0CFCDCBF41EA0C01904032
:10031800E41AA2BF01EB0451294330BD6FEA04047B
:100328001F3C1CDA0C340EDC04F11404C4F1200266
:1003380020FA04F001FA02F340EA030021FA04F378
:1003480045EA030130BDC4F10C04C4F1200220FACF
:1003580002F001FA04F340EA0300294630BD21FA0D
:1003680004F0294630BD94F0000F83F4801306BFD3
:1003780081F480110134013D4EE77FEA645C18BFC7
:100388007FEA655C29D094EA050F08BF90EA020F5E
:1003980005D054EA000C04BF1946104630BD91EA56
:1003A800030F1EBF0021002030BD5FEA545C05D159
:1003B8004000494128BF41F0004130BD14F5800498
:1003C8003CBF01F5801130BD01F0004545F0FE410C
:1003D80041F470014FF0000030BD7FEA645C1ABF41
:1003E800194610467FEA655C1CBF0B46024650EA78
:1003F800013406BF52EA033591EA030F41F40021A4
:1004080030BD00BF90F0000F04BF0021704730B529
:100418004FF4806404F132044FF000054FF00001FE
:1004280050E700BF90F0000F04BF0021704730B5BF
:100438004FF4806404F1320410F0004548BF404294
:100448004FF000013EE700BF42004FEAE2014FEAE9
:1004580031014FEA02701FBF12F07F4393F07F4FC4
:1004680081F06051704732F07F4208BF704793F0C7
:100478007F4F04BF41F40021704730B54FF46074DA
:1004880001F0004521F000411CE700BF50EA0102DD
:1004980008BF704730B54FF000050AE050EA010286
:1004A80008BF704730B511F0004502D5404261EBF6
:1004B80041014FF4806404F132045FEA915C3FF437
:1004C800D8AE4FF003025FEADC0C18BF03325FEAD4
:1004D800DC0C18BF033202EBDC02C2F1200300FA85
:1004E80003FC20FA02F001FA03FE40EA0E0021FAAA
:1004F80002F11444BDE600BF70B54FF0FF0C4CF498
:10050800E06C1CEA11541DBF1CEA135594EA0C0F49
:1005180095EA0C0F00F0DEF82C4481EA030621EA84
:100528004C5123EA4C5350EA013518BF52EA0335BF
:1005380041F4801143F4801338D0A0FB02CE4FF071
:100548000005E1FB02E506F00042E0FB03E54FF0A1
:100558000006E1FB03569CF0000F18BF4EF0010E99
:10056800A4F1FF04B6F5007F64F5407404D25FEA95
:100578004E0E6D4146EB060642EAC62141EA555148
:100588004FEAC52040EA5E504FEACE2EB4F1FD0C8A
:1005980088BFBCF5E06F1ED8BEF1004F08BF5FEA08
:1005A800500E50F1000041EB045170BD06F00046BA
:1005B80046EA010140EA020081EA0301B4EB5C0467
:1005C800C2BFD4EB0C0541EA045170BD41F480115F
:1005D8004FF0000E013C00F3AB8014F1360FDEBF84
:1005E800002001F0004170BDC4F10004203C35DA60
:1005F8000C341BDC04F11404C4F1200500FA05F3E3
:1006080020FA04F001FA05F240EA020001F0004283
:1006180021F0004110EBD37021FA04F642EB0601F9
:100628005EEA430E08BF20EAD37070BDC4F10C0423
:10063800C4F1200500FA04F320FA05F001FA04F2E7
:1006480040EA020001F0004110EBD37041F10001D3
:100658005EEA430E08BF20EAD37070BDC4F12005DE
:1006680000FA05F24EEA020E20FA04F301FA05F246
:1006780043EA020321FA04F001F0004121FA04F2EE
:1006880020EA020000EBD3705EEA430E08BF20EABE
:10069800D37070BD94F0000F0FD101F000464000F8
:1006A80041EB010111F4801F08BF013CF7D041EA7A
:1006B800060195F0000F18BF704703F0004652007E
:1006C80043EB030313F4801F08BF013DF7D043EA4F
:1006D8000603704794EA0C0F0CEA135518BF95EA05
:1006E8000C0F0CD050EA410618BF52EA4306D1D18C
:1006F80081EA030101F000414FF0000070BD50EAAB
:10070800410606BF1046194652EA430619D094EA34
:100718000C0F02D150EA013613D195EA0C0F05D11E
:1007280052EA03361CBF104619460AD181EA030172
:1007380001F0004141F0FE4141F470014FF000002A
:1007480070BD41F0FE4141F4780170BD70B54FF0C5
:10075800FF0C4CF4E06C1CEA11541DBF1CEA135545
:1007680094EA0C0F95EA0C0F00F0A7F8A4EB050427
:1007780081EA030E52EA03354FEA013100F088801E
:100788004FEA03334FF0805545EA131343EA1263E7
:100798004FEA022245EA111545EA10654FEA00269C
:1007A8000EF000419D4208BF964244F1FD0404F555
:1007B800407402D25B084FEA3202B61A65EB0305B1
:1007C8005B084FEA32024FF480104FF4002CB6EB6E
:1007D800020E75EB030E22BFB61A754640EA0C00EE
:1007E8005B084FEA3202B6EB020E75EB030E22BF2E
:1007F800B61A754640EA5C005B084FEA3202B6EB6F
:10080800020E75EB030E22BFB61A754640EA9C002D
:100818005B084FEA3202B6EB020E75EB030E22BFFD
:10082800B61A754640EADC0055EA060E18D04FEABB
:10083800051545EA16754FEA06164FEAC30343EA5B
:1008480052734FEAC2025FEA1C1CC0D111F4801F28
:100858000BD141EA00014FF000004FF0004CB6E721
:1008680011F4801F04BF01430020B4F1FD0C88BFC0
:10087800BCF5E06F3FF6AFAEB5EB030C04BFB6EBCB
:10088800020C5FEA500C50F1000041EB045170BDBE
:100898000EF0004E4EEA113114EB5C04C2BFD4EBEB
:1008A8000C0541EA045170BD41F480114FF0000E6F
:1008B800013C90E645EA060E8DE60CEA135594EAEB
:1008C8000C0F08BF95EA0C0F3FF43BAF94EA0C0FEE
:1008D8000AD150EA01347FF434AF95EA0C0F7FF463
:1008E80025AF104619462CE795EA0C0F06D152EAB7
:1008F80003353FF4FDAE1046194622E750EA41069B
:1009080018BF52EA43067FF4C5AE50EA41047FF4AB
:100918000DAF52EA43057FF4EBAE12E74FF0FF3C10
:1009280006E000BF4FF0010C02E000BF4FF0010CE1
:100938004DF804CD4FEA410C7FEA6C5C4FEA430C5A
:1009480018BF7FEA6C5C1BD001B050EA410C0CBFA9
:1009580052EA430C91EA030F02BF90EA020F00200B
:10096800704710F1000F91EA030F58BF994208BF72
:1009780090422CBFD8176FEAE37040F0010070472F
:100988004FEA410C7FEA6C5C02D150EA013C07D186
:100998004FEA430C7FEA6C5CD6D152EA033CD3D0D1
:1009A8005DF8040B704700BF8446104662468C46CB
:1009B8001946634600E000BF01B5FFF7B7FF0028FE
:1009C80048BF10F1000F01BD4DF808EDFFF7F4FF27
:1009D8000CBF012000205DF808FB00BF4DF808EDB2
:1009E800FFF7EAFF34BF012000205DF808FB00BFD5
:1009F8004DF808EDFFF7E0FF94BF012000205DF8F7
:100A080008FB00BF4DF808EDFFF7CEFF94BF0120AB
:100A180000205DF808FB00BF4DF808EDFFF7C4FFA4
:100A280034BF012000205DF808FB00BF4FEA4102F7
:100A3800B2F1E04324BFB3F5001CDCF1FE5C0DD934
:100A480001F0004C4FEAC0024CEA5070B2F1004F7E
:100A580040EB830008BF20F00100704711F0804F81
:100A680021D113F13872BCBF01F00040704741F446
:100A780080114FEA5252C2F11802C2F1200C10FA4A
:100A88000CF320FA02F018BF40F001004FEAC1232E
:100A98004FEAD32303FA0CFC40EA0C0023FA02F3D2
:100AA8004FEA4303CCE77FEA625307D150EA0133A8
:100AB8001EBF4FF0FE4040F44000704701F0004078
:100AC80040F0FE4040F40000704700BF53B94AB9F7
:100AD800002908BF00281CBF4FF0FF314FF0FF303E
:100AE80000F00CB8ADF1080C6DE904CE0BF0F8FB82
:100AF800DDF804E0DDE9022304B07047704700BF69
:100B08000348044B834202D0034B03B11847704794
:100B18006C0000206C000020000000000548064B17
:100B28001B1AD90F01EBA301491002D0034B03B1E3
:100B3800184770476C0000206C000020000000007F
:100B480010B5064C237843B9FFF7DAFF044B13B10D
:100B58000448AFF300800123237010BD6C0000200F
:100B680000000000A4C5000808B5054B1BB10549E5
:100B78000548AFF30080BDE80840FFF7CFBF00BFCE
:100B88000000000070000020A4C5000880B500AF78
:100B9800174B184A1A60164B03225A60144B00224E
:100BA8009A60134B0022DA60114B4FF4A0221A61AD
:100BB8000F4B4FF4C0025A610D4B00221A760C4BB2
:100BC80000225A760A4B00229A76094B0122DA76DD
:100BD800074B00221A77064B01225A77044804F083
:100BE800D3FA0346002B01D000F040FB00BF80BDC4
:100BF800880000200064004080B500AF174B184AF9
:100C08001A60164B03225A60144B00229A60134B49
:100C18000022DA60114B4FF4A0221A610F4B4FF4F7
:100C2800C0025A610D4B00221A760C4B00225A76EC
:100C38000A4B00229A76094B0122DA76074B0022EA
:100C48001A77064B01225A77044804F09DFA0346A6
:100C5800002B01D000F00AFB00BF80BDB0000020CF
:100C68000068004080B58CB000AF786007F11C03C5
:100C780000221A605A609A60DA601A617B681B6801
:100C88004A4A93423DD14A4B1B680133484A136094
:100C9800474B1B68012B0DD10023BB61454B1B6CD7
:100CA800444A43F000731364424B1B6C03F0007317
:100CB800BB61BB6900237B613E4B1B6B3D4A43F024
:100CC800080313633B4B1B6B03F008037B617B69D1
:100CD8000323FB6102233B6200237B620323BB6285
:100CE8000923FB6207F11C031946334806F058F93B
:100CF80000220121142005F087FB142005F0B0FB29
:100D08004FE07B681B682D4A93424AD100233B6120
:100D1800284B1B6C274A43F080631364254B1B6CDC
:100D280003F080633B613B69214B1B680133204A18
:100D380013601F4B1B68012B0DD10023FB601D4B5B
:100D48001B6C1C4A43F0007313641A4B1B6C03F0B2
:100D58000073FB60FB680023BB60164B1B6B154AD6
:100D680043F002031363134B1B6B03F00203BB60D6
:100D7800BB686023FB6102233B6200237B62032381
:100D8800BB620923FB6207F11C0319460C4806F0F5
:100D980007F900220121412005F036FB412005F02A
:100DA8005FFB00BF3037BD4680BD00BF0064004018
:100DB800D800002000380240000C024000680040C3
:100DC8000004024080B582B000AF00237B601F4B57
:100DD8001B6B1E4A43F4001313631C4B1B6B03F479
:100DE80000137B607B6800233B60184B1B6B174A22
:100DF80043F480031363154B1B6B03F480033B60C0
:100E08003B68002200210C2005F0FEFA0C2005F0BA
:100E180027FB00220021392005F0F6FA392005F0D9
:100E28001FFB00220021452005F0EEFA452005F0C1
:100E380017FB00220021462005F0E6FA462005F0BF
:100E48000FFB00BF0837BD4680BD00BF0038024019
:100E580080B58EB000AF07F1240300221A605A60F3
:100E68009A60DA601A6100233B62A24B1B6BA14AAD
:100E780043F0100313639F4B1B6B03F010033B629B
:100E88003B6A0023FB619B4B1B6B9A4A43F00203AE
:100E98001363984B1B6B03F00203FB61FB69002390
:100EA800BB61944B1B6B934A43F040031363914B14
:100EB8001B6B03F04003BB61BB6900237B618D4B57
:100EC8001B6B8C4A43F0080313638A4B1B6B03F0BC
:100ED80008037B617B6900233B61864B1B6B854A5A
:100EE80043F004031363834B1B6B03F004033B6160
:100EF8003B690023FB607F4B1B6B7E4A43F0010379
:100F080013637C4B1B6B03F00103FB60FB6800233E
:100F1800BB60784B1B6B774A43F480731363754B44
:100F28001B6B03F48073BB60BB6800237B60714B51
:100F38001B6B704A43F0800313636E4B1B6B03F00B
:100F480080037B607B6800233B606A4B1B6B694AAC
:100F580043F020031363674B1B6B03F020033B60D4
:100F68003B6801220321644806F0FAFA00224FF494
:100F78008071624806F0F4FA01221021604806F0F8
:100F8800EFFA01224CF201015E4806F0E9FA4FF649
:100F9800FF737B620323BB620023FB6207F1240318
:100FA8001946594805F0FCFF43F606737B62032394
:100FB800BB620023FB6207F124031946514805F080
:100FC800EFFF4BF6FF537B620323BB620023FB62F8
:100FD80007F1240319464D4805F0E2FF4BF6FC7370
:100FE8007B620323BB620023FB6207F124031946DB
:100FF800474805F0D5FF4FF2FF237B620323BB620E
:101008000023FB6207F1240319463C4805F0C8FF9A
:1010180049F66F537B620323BB620023FB6207F12F
:1010280024031946364805F0BBFF40F6FF737B6280
:101038000323BB620023FB6207F1240319463548EA
:1010480005F0AEFF4FF6FC737B620323BB620023FF
:10105800FB6207F1240319462F4805F0A1FF03237B
:101068007B620123BB620023FB6203233B6307F11E
:1010780024031946204805F093FF4FF480737B62E0
:101088000123BB620023FB6200233B6307F12403B7
:1010980019461A4805F084FF4FF6BC737B62032398
:1010A800BB620023FB6207F124031946124805F0CE
:1010B80077FF10237B620123BB620023FB620323BB
:1010C8003B6307F1240319460D4805F069FF4CF20C
:1010D80001037B620123BB620023FB6203233B63A2
:1010E80007F124031946074805F05AFF00BF3837AF
:1010F800BD4680BD0038024000140240000802408E
:1011080000000240000402400010024000180240A3
:10111800000C024000200240001C024080B500AFD5
:10112800094B0A4A1A60084B04225A60064B4FF4CE
:10113800C8729A60044806F03FFA0346002B01D0B3
:1011480000F094F800BF80BDDC00002000300040B3
:1011580080B500AF03F082FF00F01CF8FFF778FEBF
:10116800FFF730FEFFF712FD00F0C4FA00F090F828
:1011780000F04AFA00F022FCFFF7D0FFFFF73CFD31
:1011880000F0EEFA00F046FC00F0EEFB03F004FE7F
:1011980000BFFDE780B594B000AF07F1200330220F
:1011A800002118460AF0BCFF07F10C0300221A6060
:1011B8005A609A60DA601A610023BB60294B1B6C85
:1011C800284A43F080531364264B1B6C03F080536A
:1011D800BB60BB6800237B60234B1B68224A43F437
:1011E80080431360204B1B6803F480437B607B685B
:1011F80009233B624FF480337B6201237B63022324
:10120800BB634FF48003FB6306233B64A8237B6422
:101218000223BB640423FB6407F12003184606F08D
:1012280053FA0346002B01D000F020F80F23FB608F
:1012380002233B6100237B614FF4A053BB614FF451
:101248008053FB6107F10C030521184606F068FD81
:101258000346002B01D000F009F800BF5037BD4607
:1012680080BD00BF003802400070004080B400AF6D
:1012780072B600BF00BFFDE780B483B000AF7860EE
:10128800396000BF0C37BD465DF8047B704700002D
:1012980080B500AF174B184A1A60164B4FF482728C
:1012A8005A60144B00229A60124B0022DA60114BEC
:1012B80002221A610F4B01225A610E4B4FF4007241
:1012C8009A610C4B3822DA610A4B00221A62094BE8
:1012D80000225A62074B00229A62064B0A22DA62FF
:1012E800044806F0A5FF0346002B01D0FFF7BEFF18
:1012F80000BF80BDE80000200030014080B58AB002
:1013080000AF786007F1140300221A605A609A60EF
:10131800DA601A617B681B68284A934249D1002326
:101328003B61274B5B6C264A43F480535364244B40
:101338005B6C03F480533B613B690023FB60204BEB
:101348001B6B1F4A43F0020313631D4B1B6B03F017
:101358000203FB60FB680023BB60194B1B6B184A38
:1013680043F001031363164B1B6B03F00103BB60CF
:10137800BB6818237B610223BB610023FB61032345
:101388003B6205237B6207F1140319460D4805F0FB
:1013980007FE80237B610223BB610023FB610323DB
:1013A8003B6205237B6207F114031946064805F0E2
:1013B800F7FD00BF2837BD4680BD00BF00300140A3
:1013C80000380240000402400000024080B483B0AC
:1013D80000AF00237B60104B5B6C0F4A43F48043E3
:1013E80053640D4B5B6C03F480437B607B68002384
:1013F8003B60094B1B6C084A43F080531364064B4F
:101408001B6C03F080533B603B6800BF0C37BD4644
:101418005DF8047B704700BF0038024080B400AF1D
:1014280000BFFDE780B400AF00BFFDE780B400AFA8
:1014380000BFFDE780B400AF00BFFDE780B400AF98
:1014480000BFFDE780B400AF00BFBD465DF8047B78
:10145800704780B400AF00BFBD465DF8047B70479D
:1014680080B400AF00BFBD465DF8047B704780B50F
:1014780000AF03F045FE00BF80BD000080B500AF9F
:10148800024805F023FB00BF80BD00BF54030020C5
:1014980080B500AF024804F0A1FC00BF80BD00BFCA
:1014A8008800002080B500AF024809F049FB00BF62
:1014B80080BD00BF6402002080B500AF024807F07D
:1014C8002BFF00BF80BD00BF8C01002080B500AF9E
:1014D800024805F0FBFA00BF80BD00BFB40300203E
:1014E80080B500AF024804F079FC00BF80BD00BFA2
:1014F800B000002080B500AF024805F0E7FA00BF51
:1015080080BD00BF1404002080B500AF024805F07C
:10151800DDFA00BF80BD00BFF402002080B500AF37
:10152800024809F00DFB00BF80BD00BFAC020020DF
:1015380080B400AF01231846BD465DF8047B7047B0
:1015480080B582B000AF786039600AF045FE034686
:1015580016221A604FF0FF3318460837BD4680BD83
:1015680080B582B000AF78604FF0FF317868FFF740
:10157800E7FF00BFFDE7000080B586B000AF7860E8
:10158800144A154BD31A7B617B693B61134B1B686B
:10159800002B02D1114B124A1A60104B1A687B6853
:1015A80013443A699A4207D20AF016FE03460C22FF
:1015B8001A604FF0FF3309E0084B1B68FB60074BCC
:1015C8001A687B681344054A1360FB681846183785
:1015D800BD4680BD0000022000040000400100203C
:1015E8007007002080B400AF064BD3F88830054A56
:1015F80043F47003C2F8883000BFBD465DF8047B31
:10160800704700BF00ED00E080B58EB000AF07F175
:10161800280300221A605A609A60DA6007F12003F2
:1016280000221A605A603B1D00221A605A609A60B4
:10163800DA601A615A619A612C4B2D4A1A602B4B59
:1016480053225A60294B00229A60284B0022DA6004
:10165800264B00221A61254B00229A61234807F085
:101668005BFB0346002B01D0FFF700FE4FF48053CD
:10167800BB6207F1280319461C4808F015F9034610
:10168800002B01D0FFF7F2FD184807F023FD0346B1
:10169800002B01D0FFF7EAFD00233B6200237B62A9
:1016A80007F120031946114809F026F80346002BD4
:1016B80001D0FFF7DBFD60237B600023BB600023C4
:1016C800FB6000237B613B1D08221946074807F091
:1016D80013FF0346002B01D0FFF7C8FD034800F0B5
:1016E800E1F800BF3837BD4680BD00BF4401002087
:1016F8000008004080B582B000AF3B4600221A6067
:101708005A60154B154A1A60134B53225A60124BF4
:1017180000229A60104B40F2E732DA600E4B00224A
:101728009A610D4807F0F8FA0346002B01D0FFF73D
:101738009DFD00233B6000237B603B46194606481D
:1017480008F0DAFF0346002B01D0FFF78FFD00BF3A
:101758000837BD4680BD00BF8C0100200010004046
:1017680080B588B000AF3B1D00221A605A609A60AD
:10177800DA601A615A619A611E4B1F4A1A601D4B42
:1017880000225A601B4B00229A601A4B4FF6FF72D8
:10179800DA60184B00221A61164B00229A6115482C
:1017A80007F0BAFA0346002B01D0FFF75FFD114896
:1017B80007F090FC0346002B01D0FFF757FD60238C
:1017C8007B600023BB600023FB6000237B613B1D23
:1017D80000221946074807F08FFE0346002B01D068
:1017E800FFF744FD034800F05DF800BF2037BD4611
:1017F80080BD00BFD40100200044014080B586B000
:1018080000AF78607B681B68224A93420ED10023A0
:101818007B61214B1B6C204A43F0040313641E4B6D
:101828001B6C03F004037B617B692EE07B681B68FB
:101838001A4A934216D100233B61174B1B6C164A78
:1018480043F010031364144B1B6C03F010033B614B
:101858003B6900220221362004F0D6FD362004F030
:10186800FFFD12E07B681B680D4A93420DD10023EF
:10187800FB60094B5B6C084A43F400335364064B26
:101888005B6C03F40033FB60FB6800BF1837BD4690
:1018980080BD00BF00080040003802400010004032
:1018A8000044014080B58AB000AF786007F11403A6
:1018B80000221A605A609A60DA601A617B681B68B5
:1018C800244A93421FD100233B61234B1B6B224ABE
:1018D80043F008031363204B1B6B03F008033B61C1
:1018E8003B694FF480437B610223BB610023FB61AA
:1018F80000233B6202237B6207F114031946174851
:1019080005F04EFB22E07B681B68154A93421DD107
:101918000023FB60104B1B6B0F4A43F0200313633B
:101928000D4B1B6B03F02003FB60FB6840237B61BE
:101938000223BB610023FB6100233B6203237B621C
:1019480007F114031946074805F02AFB00BF28379A
:10195800BD4680BD0008004000380240000C02402F
:10196800004401400014024080B500AF114B124AF8
:101978001A60104B4FF47A325A600E4B00229A606C
:101988000C4B0022DA600B4B00221A61094B0C2227
:101998005A61084B00229A61064B0022DA61054819
:1019A80008F09CFF0346002B01D0FFF75FFC00BF47
:1019B80080BD00BF1C0200200010014080B500AFB0
:1019C800114B124A1A60104B114A5A600E4B4FF4D1
:1019D80080529A600C4B0022DA600B4B4FF4806205
:1019E8001A61094B04225A61074B00229A61064B7F
:1019F8000022DA61044808F071FF0346002B01D089
:101A0800FFF734FC00BF80BD64020020004800409E
:101A1800A086010080B500AF114B124A1A60104B26
:101A28004FF4E1325A600E4B00229A600C4B0022B0
:101A3800DA600B4B00221A61094B0C225A61084BE1
:101A480000229A61064B0022DA61054808F046FF39
:101A58000346002B01D0FFF709FC00BF80BD00BF83
:101A6800AC0200200014014080B58EB000AF786051
:101A780007F1240300221A605A609A60DA601A613A
:101A88007B681B68734A93427AD100233B62724B8E
:101A98005B6C714A43F0100353646F4B5B6C03F04B
:101AA80010033B623B6A0023FB616B4B1B6B6A4A6A
:101AB80043F002031363684B1B6B03F00203FB61E3
:101AC800FB690023BB61644B1B6B634A43F0010352
:101AD8001363614B1B6B03F00103BB61BB6980237C
:101AE8007B620223BB620023FB6203233B63072361
:101AF8007B6307F124031946584805F051FA4FF45F
:101B080000737B620223BB620023FB6203233B63F7
:101B180007237B6307F124031946514805F040FA6F
:101B2800504B514A1A604F4B4FF000625A604D4B70
:101B380040229A604B4B0022DA604A4B4FF4806295
:101B48001A61484B00225A61464B00229A61454B64
:101B58000022DA61434B4FF400321A62414B0022F3
:101B68005A62404804F0A0FC0346002B01D0FFF75E
:101B78007DFB7B683B4A9A633A4A7B68936316E12C
:101B88007B681B68394A934278D100237B61324BCA
:101B98001B6C314A43F4802313642F4B1B6C03F4F2
:101BA80080237B617B6900233B612B4B1B6B2A4A9B
:101BB80043F004031363284B1B6B03F004033B61DE
:101BC8003B694FF440637B620223BB620023FB62E4
:101BD80003233B6307237B6307F124031946244847
:101BE80005F0DEF9234B244A1A60224B4FF00062BD
:101BF8005A60204B00229A601E4B0022DA601D4B6F
:101C08004FF480621A611B4B00225A61194B002263
:101C18009A61184B0022DA61164B4FF440321A626F
:101C2800144B00225A62134804F03EFC0346002B72
:101C380001D0FFF71BFB7B680E4ADA630D4A7B680D
:101C4800936300220021272004F0DEFB272004F004
:101C580007FCACE0001001400038024000040240DC
:101C680000000240F4020020B8640240004800402E
:101C78000008024054030020286002407B681B686B
:101C88004D4A934240F093800023FB604B4B5B6CC2
:101C98004A4A43F020035364484B5B6C03F020032B
:101CA800FB60FB680023BB60444B1B6B434A43F05B
:101CB80040031363414B1B6B03F04003BB60BB68DD
:101CC8004FF484437B620223BB620023FB6203233D
:101CD8003B6308237B6307F124031946384805F062
:101CE8005FF9384B384A1A60364B4FF020625A6019
:101CF800344B00229A60334B0022DA60314B4FF4A8
:101D080080621A612F4B00225A612E4B00229A6181
:101D18002C4B0022DA612B4B4FF440321A62294BCC
:101D280000225A62274804F0BFFB0346002B01D06B
:101D3800FFF79CFA7B68234ADA63224A7B6893633D
:101D4800224B234A1A60214B4FF020625A601F4BE6
:101D580040229A601D4B0022DA601C4B4FF48062CF
:101D68001A611A4B00225A61184B00229A61174BCC
:101D78000022DA61154B4FF440321A62134B0022ED
:101D88005A62124804F090FB0346002B01D0FFF77B
:101D98006DFA7B680D4A9A630C4A7B68936300224C
:101DA8000021472004F030FB472004F059FB00BF16
:101DB8003837BD4680BD00BF0014014000380240DE
:101DC80000180240B40300202864024014040020D4
:101DD800A064024080B487B000AFF860B9607A6050
:101DE8003B603B687B6113E0FB681A1DFA6093ED6A
:101DF800007ABB681A1DBA60D3ED007A7B681A1D99
:101E08007A6077EE277AC3ED007A7B69013B7B61C4
:101E18007B69002BE8D100BF00BF1C37BD465DF8C9
:101E2800047B704780B487B000AFF86087ED020A82
:101E380079603A603B687B6110E0FB681A1DFA60C4
:101E480093ED007A7B681A1D7A60D7ED027A67EE07
:101E5800277AC3ED007A7B69013B7B617B69002BA4
:101E6800EBD100BF00BF1C37BD465DF8047B70474F
:101E780080B4A1B000AF87ED030AC7ED020A78600D
:101E8800D7ED027AF5EEC07AF1EE10FA40F38E80C3
:101E9800D7ED036A97ED027AC6EE877AC7ED1F7A07
:101EA8000023BB674FF000037B67D7ED1F7AF5EE81
:101EB800C07AF1EE10FA07D50123BB67D7ED1F7A78
:101EC800F1EE677AC7ED1F7AD7ED1F7AB7EE007A81
:101ED800F4EEC77AF1EE10FA31DDF7EE006A97ED0D
:101EE8001F7AC6EE877AC7ED1F7AFB6F3B67B54B43
:101EF800FB660123BB660123BB6614E097ED1C7AE1
:101F0800D7ED1B7A27EE277ABB6EC3F10903AE4AD9
:101F18009B001344D3ED007A77EE277AC7ED1B7A3E
:101F2800BB6E0133BB66BB6E092BE7DDD7ED1B7AB1
:101F38009FEDA67A77EE677AC7ED1D7A28E0FB6FEA
:101F48007B66A04B3B660123FB650123FB6514E020
:101F580097ED197AD7ED187A27EE277AFB6DC3F13A
:101F68000903994A9B001344D3ED007A77EE277A48
:101F7800C7ED187AFB6D0133FB65FB6D092BE7DDB7
:101F8800D7ED187A97ED1D7A77EE277AC7ED1D7A87
:101F9800BB6F002B05D0D7ED1D7AF1EE677AC7ED40
:101FA8001D7A7A6F7B681A60002375E1D7ED027A93
:101FB800F5EEC07AF1EE10FA40F14D81D7ED037AD3
:101FC800F5EEC07AF1EE10FA40F39380D7ED036A8C
:101FD80097ED027AC6EE877AC7ED167A00237B65FD
:101FE8004FF000033B65D7ED167AF5EEC07AF1EEB7
:101FF80010FA07D501237B65D7ED167AF1EE677ADB
:10200800C7ED167AD7ED167AB7EE007AF4EEC77AEE
:10201800F1EE10FA31DDF7EE006A97ED167AC6EEAA
:10202800877AC7ED167ABB6DFB64664BBB640123E8
:102038007B6401237B6414E097ED137AD7ED127A61
:1020480027EE277A7B6CC3F109035F4A9B00134490
:10205800D3ED007A77EE277AC7ED127A7B6C0133DD
:102068007B647B6C092BE7DDD7ED127A9FED577AFD
:1020780077EE677AC7ED147A28E0BB6D3B64514B65
:10208800FB630123BB630123BB6314E097ED107A64
:10209800D7ED0F7A27EE277ABB6BC3F109034A4ABB
:1020A8009B001344D3ED007A77EE277AC7ED0F7AB9
:1020B800BB6B0133BB63BB6B092BE7DDD7ED0F7A35
:1020C80097ED147A77EE277AC7ED147A7B6D002B9B
:1020D80005D0D7ED147AF1EE677AC7ED147AD7ED0B
:1020E800147A9FED3B7A77EE877A7B68C3ED007AA6
:1020F800AFE0D7ED037AF5EEC07AF1EE10FA40F1D1
:102108009C80D7ED036A97ED027AC6EE877AC7ED11
:102118000D7A00233B634FF00003FB62D7ED0D7A85
:10212800F5EEC07AF1EE10FA07D501233B63D7ED3F
:102138000D7AF1EE677AC7ED0D7AD7ED0D7AB7EE25
:10214800007AF4EEC77AF1EE10FA31DDF7EE006AA4
:1021580097ED0D7AC6EE877AC7ED0D7A7B6BBB6279
:10216800184B7B6201233B6201233B6214E097ED2D
:102178000A7AD7ED097A27EE277A3B6AC3F1090371
:10218800114A9B001344D3ED007A77EE277AC7ED06
:10219800097A3B6A01333B623B6A092BE7DDD7EDDD
:1021A800097A9FED0A7A77EE677AC7ED0B7A31E004
:1021B8007B6BFB61034BBB6101237B6101237B616B
:1021C8001DE000BFA59204BD04CA0008DB0FC93F8B
:1021D800DB0F494097ED077AD7ED067A27EE277A85
:1021E8007B69C3F109032F4A9B001344D3ED007A9E
:1021F80077EE277AC7ED067A7B6901337B617B69C5
:10220800092BE7DDD7ED067A97ED0B7A77EE277A7B
:10221800C7ED0B7A3B6B002B05D0D7ED0B7AF1EEAF
:10222800677AC7ED0B7AD7ED0B7A9FED1F7A77EEB9
:10223800C77A7B68C3ED007A0BE0FB6803F00043C4
:10224800002B03D07B68194A1A6002E07B68184AA1
:102258001A60002320E0D7ED027AF5EE407AF1EE1D
:1022680010FA17D1D7ED037AF5EEC07AF1EE10FA2D
:1022780004DD7B680F4A1A6000230DE0D7ED037A6E
:10228800F5EEC07AF1EE10FA04D57B680A4A1A60B6
:10229800002301E06FF0030318468437BD465DF85C
:1022A800047B704704CA0008DB0F4940DB0F49C0B4
:1022B800DB0F4940DB0FC93FDB0FC9BF80B485B0D6
:1022C80000AFF8607B600B467B8113463B81FB685F
:1022D8007A891A80FB683A895A80FB687A685A605A
:1022E80000BF1437BD465DF8047B704780B499B0D1
:1022F80000AFF860B9607A60FB681B88BB62FB6856
:102308005B887B62FB685B683B62BB6A9B08A7F8DB
:1023180044300023A7F846307B68BB649AE04FF04E
:102328000003FB634FF00003BB634FF000037B63C4
:102338004FF000033B63BB68FB647B6AA7F842303D
:10234800B7F846309B003A6A1344FB657B6A9B00EA
:10235800FA6D1344BB657B6A9B00BA6D13447B65B9
:102368007B6A9B007A6D13443B654DE0FB6C1A1D3C
:10237800FA641B68FB61FB6D1A1DFA651B687B61BB
:1023880097ED057AD7ED077A67EE277A97ED0F7AFA
:1023980077EE277AC7ED0F7ABB6D1A1DBA651B68F1
:1023A8007B6197ED057AD7ED077A67EE277A97ED87
:1023B8000E7A77EE277AC7ED0E7A7B6D1A1D7A654D
:1023C8001B687B6197ED057AD7ED077A67EE277A68
:1023D80097ED0D7A77EE277AC7ED0D7A3B6D1A1DCA
:1023E8003A651B687B6197ED057AD7ED077A67EE4A
:1023F800277A97ED0C7A77EE277AC7ED0C7AB7F83B
:102408004230013BA7F84230B7F84230002BADD13B
:10241800BB6C1A1DBA64FA6B1A60BB6C1A1DBA64DD
:10242800BA6B1A60BB6C1A1DBA647A6B1A60BB6C03
:102438001A1DBA643A6B1A607B6A9BB29B009AB207
:10244800B7F846301344A7F84630B7F84430013B94
:10245800A7F84430B7F84430002B7FF460AFBB6A6C
:102468009BB203F00303A7F8443077E04FF0000372
:10247800FB62BB68FB64B7F846309B003A6A1344BA
:10248800FB657B6A5B08A7F8423030E0FB6C1A1DDD
:10249800FA641B68FB61FB6C1A1DFA641B68BB615C
:1024A800FB6D1A1DFA651B687B61FB6D1A1DFA65C9
:1024B8001B683B6197ED057AD7ED077A67EE277AB7
:1024C80097ED0B7A77EE277AC7ED0B7A97ED047ABA
:1024D800D7ED067A67EE277A97ED0B7A77EE277AAB
:1024E800C7ED0B7AB7F84230013BA7F84230B7F88E
:1024F8004230002BCAD17B6A9BB203F00103A7F8D4
:10250800423016E0FB6D1A1DFA6593ED007AFB6CFC
:102518001A1DFA64D3ED007A67EE277A97ED0B7AE5
:1025280077EE277AC7ED0B7AB7F84230013BA7F868
:102538004230B7F84230002BE4D1BB6C1A1DBA64A4
:10254800FA6A1A607B6A9AB2B7F846301344A7F859
:102558004630B7F84430013BA7F84430B7F8443068
:10256800002B83D100BF00BF6437BD465DF8047BF4
:10257800704780B485B000AFF860B9607A60FB68D6
:1025880093ED007ABB68D3ED007A27EE277AFB68D3
:102598000433D3ED006ABB680433D3ED007A66EEEA
:1025A800A77A37EE677AFB680833D3ED006ABB6811
:1025B8000833D3ED007A66EEA77A37EE677AFB68C0
:1025C8000C33D3ED006ABB680C33D3ED007A66EEAA
:1025D800A77A77EE677A7B68C3ED007AFB6893ED9C
:1025E800007ABB680433D3ED007A27EE277AFB68BC
:1025F8000433D3ED006ABB68D3ED007A66EEA77AA0
:1026080037EE277AFB680833D3ED006ABB680C33D2
:10261800D3ED007A66EEA77A37EE277AFB680C339B
:10262800D3ED006ABB680833D3ED007A66EEA77A6B
:102638007B68043377EE677AC3ED007AFB6893ED25
:10264800007ABB680833D3ED007A27EE277AFB6857
:102658000833D3ED006ABB68D3ED007A66EEA77A3B
:1026680037EE277AFB680C33D3ED006ABB68043376
:10267800D3ED007A66EEA77A37EE277AFB68043343
:10268800D3ED006ABB680C33D3ED007A66EEA77A07
:102698007B68083377EE677AC3ED007AFB6893EDC1
:1026A800007ABB680C33D3ED007A27EE277AFB68F3
:1026B8000C33D3ED006ABB68D3ED007A66EEA77AD7
:1026C80037EE277AFB680433D3ED006ABB6808331A
:1026D800D3ED007A66EEA77A37EE277AFB680833DF
:1026E800D3ED006ABB680433D3ED007A66EEA77AAF
:1026F8007B680C3377EE677AC3ED007A00BF143736
:10270800BD465DF8047B704780B582B000AF786045
:1027180039600F4A7B681A607B684FF07E525A60B6
:102728007B684FF000029A607B684FF00002DA6025
:102738007B684FF000021A617B6804331022396805
:10274800184609F075FD7B6818460837BD4680BDF8
:1027580034CA000880B582B000AF786039607B6801
:10276800043310221946386809F062FD00BF0837A3
:10277800BD4680BD80B487B000AF786087ED000AA1
:10278800D7ED007AF5EEC07AF1EE10FA02D54FF0E7
:10279800000327E0D7ED007AB6EE007A67EE877A75
:1027A800C7ED057A3B683B613B69FB60FB685A10E3
:1027B800114B9B1AFB60FB683B6197ED047AD7EDE0
:1027C800057A27EE277AD7ED047A67EE277AB7EEEF
:1027D800087A37EE677AD7ED047A67EE277AC7ED7D
:1027E800047A3B6907EE903AB0EE670A1C37BD469B
:1027F8005DF8047B704700BFDF59375F80B483B052
:1028080000AF7860044A7B681A607B6818460C370A
:10281800BD465DF8047B704734CA000880B582B0B5
:1028280000AF78607868FFF7E9FF1421786809F04D
:1028380059FA7B6818460837BD4680BD80B586B012
:1028480000AF7861396187ED030AC7ED020A87EDA9
:10285800011A7B6939691846FFF756FF124A7B69E6
:102868001A607B69FA685A61D7ED027A77EEA77A1F
:102878007B69C3ED067AD7ED017A77EEA77A7B6993
:10288800C3ED077A7B694FF000021A627B694FF04B
:1028980000025A627B694FF000029A627B6918460F
:1028A8001837BD4680BD00BF48CA000880B5A0B033
:1028B80000AFF860B9607A604FF00003BB674FF073
:1028C8000003BB664FF00003FB664FF000033B6755
:1028D800BB68D3ED007AF5EE407AF1EE10FA11D12B
:1028E800BB680433D3ED007AF5EE407AF1EE10FAC6
:1028F80008D1BB680833D3ED007AF5EE407AF1EEE3
:1029080010FA79D0FA68BB6893ED007ABB68D3ED0A
:10291800007A27EE277ABB680433D3ED006ABB68D8
:102928000433D3ED007A66EEA77A37EE277ABB68D0
:102938000833D3ED006ABB680833D3ED007A66EE3E
:10294800A77A77EE277AB0EE670A1046FFF712FFEC
:1029580087ED1E0A07F120030322194697ED1E0A88
:10296800B868FFF75FFAFB6893ED027AFB68D3ED6E
:10297800047A27EE277AFB68D3ED016AFB68D3ED6A
:10298800037A66EEA77A77EE677AC7ED057AFB6871
:1029980093ED037AFB68D3ED047A27EE277AFB6878
:1029A800D3ED016AFB68D3ED027A66EEA77A77EE7B
:1029B800277AC7ED067AFB6893ED027AFB68D3EDB8
:1029C800027A67EE277AB6EE007A37EE677AFB6806
:1029D800D3ED036AFB68D3ED037A66EEA77A77EE48
:1029E800677AC7ED077A07F1680207F1140107F162
:1029F8002003184600F0C9F807F15C0300221A60AA
:102A08005A609A604FF000037B67002387F87F3095
:102A18005DE097F87F30FA6808339B00134493ED24
:102A2800007AFB68D3ED076A97F87F309B00803304
:102A38003B44183BD3ED007A26EEA76AFB68D3ED3A
:102A4800056AC6EE267A97F87F3077EE277AFA6815
:102A580008339B001344C3ED007AFB6893ED067AB4
:102A680097F87F309B0080333B44183BD3ED007AC6
:102A780027EE277A97F87F30FA6808339B001344CB
:102A8800D3ED007A77EE277AC7ED1D7A97F87F3075
:102A98009B007A68134493ED007AD7ED1D7A77EEA0
:102AA800277AB6EE007A67EE876AFB6893ED057AB7
:102AB80097F87F30C6EE877A9B0080333B44243BEF
:102AC800C3ED007A97F87F30013387F87F3097F8A5
:102AD8007F30022B9DD907F14C0300221A605A60FF
:102AE8009A60DA6007F13C0300221A605A609A6023
:102AF800DA60FB6D3B643B6E7B647B6EBB64FB689A
:102B0800043307F14C0207F13C011846FFF731FD89
:102B1800FB68181D07F12C0207F14C010423FFF78D
:102B280059F9FB6897ED0B7AD7ED0B7A27EE277AE0
:102B3800D7ED0C6AD7ED0C7A66EEA77A37EE277ACE
:102B4800D7ED0D6AD7ED0D7A66EEA77A37EE277ABC
:102B5800D7ED0E6AD7ED0E7A66EEA77A77EE277A6A
:102B6800B0EE670A1846FFF705FE87ED1E0AFB68F8
:102B7800191D07F12C03042297ED1E0A1846FFF7CA
:102B880051F900BF8037BD4680BD80B485B000AF25
:102B9800F860B9607A60FB68043393ED007ABB682B
:102BA8000833D3ED007A27EE277ABB680433D3EDD8
:102BB800006AFB680833D3ED007A66EEA77A77EEF1
:102BC800677A7B68C3ED007ABB6893ED007AFB688F
:102BD8000833D3ED007A27EE277AFB68D3ED006A35
:102BE800BB680833D3ED007A66EEA77A7B680433B6
:102BF80077EE677AC3ED007AFB6893ED007ABB68DD
:102C08000433D3ED007A27EE277ABB68D3ED006A48
:102C1800FB680433D3ED007A66EEA77A7B68083345
:102C280077EE677AC3ED007A00BF1437BD465DF8CA
:102C3800047B704780B582B000AF7860054A7B6836
:102C48001A607B681846FFF7D9FD7B681846083775
:102C5800BD4680BD48CA000880B582B000AF786024
:102C68007868FFF7E7FF2C21786809F03BF87B6864
:102C780018460837BD4680BD80B483B000AF786081
:102C8800044A7B681A607B6818460C37BD465DF8B5
:102C9800047B704780CA000880B582B000AF7860B6
:102CA8007868FFF7E9FF4C21786809F01BF87B6822
:102CB80018460837BD4680BD80B582B000AF786041
:102CC8007B6898687B68DB689BB20022194604F031
:102CD80047FC00BF0837BD4680BD80B582B000AF55
:102CE80078607B6898687B68DB689BB2012219462C
:102CF80004F036FC00BF0837BD4680BD80B582B001
:102D080000AF78607B6818697B685B699BB20022BA
:102D1800194604F025FC00BF0837BD4680BD80B5C4
:102D280082B000AF78607B6818697B685B699BB28A
:102D38000122194604F014FC00BF0837BD4680BDC7
:102D4800B0B584B000AFF860B9607A603B60224AE1
:102D5800FB681A60BB681A68FB685A60BB685A68E7
:102D6800FB689A60BB689A68FB68DA60BB68DA68D7
:102D7800FB681A61BB681A69FB685A61FB683A68A4
:102D880018331068186012791A71FB68134A03F136
:102D9800200415460FCD0FC40FCD0FC42B68236038
:102DA800FB68203324227968184609F041FAFB6849
:102DB80003F14400FB68203303220321FFF77EFA66
:102DC800F868FFF78AFFF868FFF7A9FFFB6818465D
:102DD8001037BD46B0BD00BF80CA0008BCC500089A
:102DE80080B584B000AF78600B46FB7000237B731E
:102DF800FB781946786800F0FCF80346BB7307F1C6
:102E08000E0207F10D031146184600F0EFFBFB78A0
:102E18001946786800F050F80346FB7307F10F0273
:102E280007F10D031146184600F0E0FB7B7B1846BE
:102E38001037BD4680BD80B588B000AFF860B96076
:102E48007A603B60BB68002B10D0022000F0E2FBE8
:102E580007F114031946F86800F064FAFB68443374
:102E680007F11401BA681846FFF740FA7B68002B8F
:102E780010D0022000F0CEFB07F114031946F868C1
:102E880000F00EFAFB68443307F114017A6818461B
:102E9800FFF72CFA3B68002B0AD0022000F0BAFB9F
:102EA800F86800F081FAF0EE407A3B68C3ED007AEA
:102EB80000BF2037BD4680BD80B586B000AF7860C2
:102EC8000B46FB70022000F0A5FB0021786800F09B
:102ED8002BFB022000F09EFB0021786800F024FB09
:102EE80003461E2B14BF01230023DBB2002B01D0A5
:102EF80001237AE0FB78002B0CD0786800F000F909
:102F08000346002B14BF01230023DBB2002B01D0A2
:102F180004236AE0022000F07DFBB6227E21786857
:102F280000F0E4FA022002F00BF9022000F072FB34
:102F38000021786800F0F8FA7B689B7E5BB21B0181
:102F48005AB27B685B7E5BB213435BB2BB7507F119
:102F58000C0300221A605A6041233B734023BB7361
:102F680040F27D433B827C237B827B681B7E7B73A4
:102F7800BB7DFB730023FB7533E0022000F04AFBA6
:102F8800FB7D5B0018333B4413F80C1CFB7D5B0096
:102F980018333B4413F80B3C1A46786800F0A6FA3D
:102FA800782000F037FBFB7D5B0018333B4413F8B7
:102FB8000C3C1946786800F0B7FA03461A46FB7DC0
:102FC8005B0018333B4413F80B3C9A4214BF0123AF
:102FD8000023DBB2002B01D0102306E0FB7D013378
:102FE800FB75FB7D032BC8D9002318461837BD464F
:102FF80080BD80B584B000AF78600B46FB700220BE
:1030080000F008FB0021786800F01EFA03460F2B39
:1030180014BF01230023DBB2002B01D002236AE096
:10302800FB78002B0CD0786800F014F90346002BCD
:1030380014BF01230023DBB2002B01D008235AE080
:10304800022000F0E7FAB6221421786800F0DEF9D1
:10305800012002F075F87B681B7F63F07F03BB7368
:1030680007F1080300221A609A800F233B7210238D
:10307800BB721123BB817B68DB7E7B72BB7BFB72DF
:103088000023FB7333E0022000F0C4FAFB7B5B00F3
:1030980010333B4413F8081CFB7B5B0010333B44A4
:1030A80013F8073C1A46786800F0B0F9782000F069
:1030B800B1FAFB7B5B0010333B4413F8083C19461C
:1030C800786800F0C1F903461A46FB7B5B001033B1
:1030D8003B4413F8073C9A4214BF01230023DBB298
:1030E800002B01D0202306E0FB7B0133FB73FB7B25
:1030F800022BC8D9002318461037BD4680BD0000F2
:1031080080B58EB000AF7860504A07F12C0392E882
:10311800030083E80300002387F8373039E00220F2
:1031280000F078FA97F837305B0038333B4413F8EF
:103138000C1C97F837305B0038333B4413F80B3CD2
:103148001A46786800F0D2F9782000F063FA97F808
:1031580037305B0038333B4413F80C3C1946786829
:1031680000F0E2F903461A4697F837305B00383327
:103178003B4413F80B3C9A4214BF01230023DBB2F3
:10318800002B01D004235CE097F83730013387F82F
:10319800373097F83730032BC1D9022001F0D0FF20
:1031A8000D226D21786800F0A1F9322001F0C8FFE6
:1031B80007F120031946786800F0B4F809226D2158
:1031C800786800F093F9322001F0BAFF07F1140390
:1031D8001946786800F0A6F81D4A07F1080307CADF
:1031E80083E80700002387F8363025E097F8363063
:1031F8009B0038333B44183B93ED007A97F8363000
:103208009B0038333B44243BD3ED007A37EE677A92
:1032180097F836309B0038333B44303BD3ED007A87
:10322800B4EEE77AF1EE10FA01D5042309E097F835
:103238003630013387F8363097F83630022BD5D937
:10324800002318463837BD4680BD00BFE0C50008DA
:10325800E8C5000880B584B000AF7860022000F0AF
:10326800D9F901223C21786800F0D0F8022000F05A
:10327800D1F93C21786800F0E7F80346FB73FB7B43
:1032880003F00203002BF1D0FB7B03F00403002BB7
:1032980001D0082300E0002318461037BD4680BD42
:1032A80080B584B000AF7860396007F10803062262
:1032B8000221786800F0EEF80023FB7328E07B68B1
:1032C800DB7E174A9B00134493ED007AFB7B5B007F
:1032D80010333B4413F8083C1AB2FB7B5B00013304
:1032E80010333B4413F8083C1BB21B021BB21343B8
:1032F8001BB207EE903AF8EEE77AFB7B9B003A6840
:10330800134467EE277AC3ED007AFB7B0133FB7326
:10331800FB7B022BD3D900BF00BF1037BD4680BD51
:1033280064CA000880B584B000AF7860396007F1DE
:10333800080306221221786800F024F90023FB73A1
:1033480028E07B681B7E174A9B00134493ED007AA4
:10335800FB7B5B0010333B4413F8083C1AB2FB7B41
:103368005B00013310333B4413F8083C1BB21B02CB
:103378001BB213431BB207EE903AF8EEE77AFB7BD9
:103388009B003A68134467EE277AC3ED007AFB7B0B
:103398000133FB73FB7B022BD3D900BF00BF10376F
:1033A800BD4680BD54CA000880B584B000AF7860BF
:1033B80007F10C0302222221786800F0E3F83B7B36
:1033C8001BB2DB001AB27B7B5B09DBB21BB2134377
:1033D800FB81B7F90E30B3F5806F04DBFB89A3F5E9
:1033E80000639BB2FB81B7F90E3007EE903AF8EE16
:1033F800E77AB4EE007A67EE877AB3EE077A77EE6B
:10340800877AB0EE670A1037BD4680BD80B584B0B4
:1034180000AF78600B46FB701346BB70FB783B73BC
:10342800BB787B737868FFF769FC7B68586807F19D
:103438000C010223022205F089F87868FFF76FFC77
:1034480000BF1037BD4680BD80B586B002AF78603A
:103458000B46FB7000233B8155237B72FB7863F09E
:103468007F03FB70FB783B727868FFF747FC7B684B
:10347800586807F10C0207F10801022300930223A0
:1034880005F0B8F97868FFF74AFC7B7B18461037D7
:10349800BD4680BD80B586B002AFF8607B600B4644
:1034A800FB721346BB72F868FFF728FCFB7A63F0DF
:1034B8007F03DBB2FB72FB68586807F10B0102233C
:1034C800012205F043F8FB685868BB7A9BB20222D8
:1034D80000927A68044905F08DF9F868FFF71FFC37
:1034E80000BF1037BD4680BD0400002080B584B001
:1034F80000AF78600B46FB701346BB70FB783B73DC
:10350800BB787B737868FFF7D7FB7B68586807F14F
:103518000C010223022205F019F87868FFF7DDFB99
:1035280000BF1037BD4680BD80B586B002AF786059
:103538000B46FB7007F1080300210A461A800A4669
:103548009A7055237B725523BB72FB7863F07F0317
:10355800FB70FB783B727868FFF7AEFB7B685868B6
:1035680007F10C0207F1080102230093032305F079
:1035780041F97868FFF7B1FBBB7B18461037BD46A9
:1035880080BD000080B588B002AFF8607B600B4654
:10359800FB721346BB720023BB8255237B75FB7AF3
:1035A80063F07F03FB72FB7A3B75F868FFF784FBD7
:1035B800FB68586807F114010223009302237A6814
:1035C80005F018F9FB685868BB7A9BB20222009292
:1035D8007A68054905F00EF9F868FFF77EFB00BF29
:1035E8001837BD4680BD00BF0400002080B483B0FA
:1035F80000AF786039607B681A783B681B781343A2
:10360800DAB27B681A7000BF0C37BD465DF8047BE0
:103618007047000080B489B000AF7860234B5B68C6
:103628007B617B6807EE903AB8EE677A204B1B689F
:1036380007EE903AF8EE676A9FED1E6AC6EE867A44
:1036480067EE277AFCEEE77A17EE903A3B61174B64
:103658009B68FB610023FB600023BB611BE0134BED
:103668009B68FB60FA68FB699A4214D0FA68FB69A8
:103678009A4206D2FA69FB68D31ABA691344BB6145
:1036880007E07A69FB68D21AFB691344BA691344E4
:10369800BB61FB68FB61BA693B699A42DFD300BF33
:1036A80000BF2437BD465DF8047B704710E000E09A
:1036B800000000200024744980B485B000AF786011
:1036C80039603B681B781AB23B6801331B781BB220
:1036D8001B021BB213431BB29BB2C3F30A03FB8149
:1036E800FB897F4A12889B1A07EE903AB8EEE77A70
:1036F8007C4BD3ED007A67EE277A7B68C3ED047ABA
:103708003B6801331B78DB08DBB21AB23B68023333
:103718001B781BB25B011BB213431BB29BB2C3F3F2
:103728000A03FB81FB896E4A12889B1A07EE903ABE
:10373800B8EEE77A6B4BD3ED007A67EE277A7B68B1
:10374800C3ED037A3B6802331B789B09DBB21AB2DC
:103758003B6803331B781BB29B001BB213431AB29E
:103768003B6804331B781BB29B021BB213431BB28A
:103778009BB2C3F30A03FB81FB89594A12889B1A3F
:1037880007EE903AB8EEE77A564BD3ED007A67EE3B
:10379800277A7B68C3ED027A3B6804331B785B08A1
:1037A800DBB21AB23B6805331B781BB2DB011BB2D4
:1037B80013431BB29BB2C3F30A03FB81FB89484A3C
:1037C80012889B1A07EE903AB8EEE77A454BD3ED8C
:1037D800007A67EE277A7B68C3ED017A3B6810337D
:1037E8001B781AB23B6811331B781BB21B021BB241
:1037F80013431BB2FB81FB89394A12889B1A07EED7
:10380800903AB8EEE77A374BD3ED007A67EE277A2D
:103818007B68C3ED057A3B6805331B789B09DAB2F0
:103828007B681A763B6805331B781B09DBB203F00B
:103838000303DAB27B685A763B6806331B781AB200
:103848003B6807331B781BB21B021BB213431AB227
:103858007B689A833B6808331B781AB23B68093344
:103868001B781BB21B021BB213431AB27B68DA83A4
:103878003B680A331B781AB23B680B331B781BB2C0
:103888001B021BB213431AB27B681A843B680C33C1
:103898001B78002B14BF01230023DAB27B689A76C9
:1038A8003B680D331B78002B14BF01230023DAB2C9
:1038B8007B68DA763B680E331B781AB23B680F33A5
:1038C8001B781BB21B021BB213431BB29AB27B6854
:1038D8005A8400BF1437BD465DF8047B704700BFAB
:1038E8000C0000201000002080B58CB000AF78607C
:1038F80001233B6200237B620123BB620E23FB6230
:103908007B68284A934222D10023BB6100233B6293
:1039180001237B620023BB600023FB6000233B6123
:1039280000237B610023FB610123BB6207F10803CD
:103938001946786801F046FE0346002B14BF0123A0
:103948000023DBB2002B28D0FDF790FC25E07B6834
:10395800154A934221D10123BB6100233B62012315
:103968007B620023BB600023FB6000233B610023D4
:103978007B610123BB620E23FB6107F10803194633
:10398800786801F01FFE0346002B14BF01230023B3
:10399800DBB2002B01D0FDF769FC00BF3037BD4614
:1039A80080BD00BF88000020B0000020000000009B
:1039B80080B582B000AF78607B683D4A93426BD196
:1039C8003C4B3D4A0021786802F0A8F80346002BDA
:1039D8000CBF01230023DBB2002B5DD0364B1B68E4
:1039E800002B04D108223349344800F044FA324B02
:1039F8001B68502B50D12F4B1B781BB21B021AB2DD
:103A08002C4B5B781BB213431BB21846FCF70AFD1C
:103A180025A3D3E90023FCF799FE02460B4610467E
:103A28001946FDF703F80346254A1360214B9B7896
:103A38001BB21B021AB21F4BDB781BB213431BB21B
:103A48001846FCF7EFFC18A3D3E90023FCF77EFE29
:103A580002460B4610461946FCF7E8FF0346184A8B
:103A68005360144B1B791BB21B021AB2114B5B79C2
:103A78001BB213431BB21846FCF7D4FC0AA3D3E9C4
:103A88000023FCF763FE02460B4610461946FCF776
:103A9800CDFF03460A4A93600221786802F06CF968
:103AA80000BF0837BD4680BD000000000088C34045
:103AB80088000020AC040020740400206405002065
:103AC800C00400200000000080B582B000AF78601C
:103AD8007B689D4A934240F02E819C4B9C4A012171
:103AE800786802F01BF80346002B0CBF0123002363
:103AF800DBB2002B00F01B81954B1B6840F20122C2
:103B0800934240D1914B1B781BB21B021AB28F4BC8
:103B18005B781BB213431BB21846FCF783FC88A3DF
:103B2800D3E90023FCF712FE02460B46104619465D
:103B38004FF00002874BFCF7DFFC02460B461046AD
:103B48001946FCF773FF0346834A53607F4B9B7803
:103B58001BB21B021AB27D4BDB781BB213431AB29D
:103B68007D4B1A80794B1B791BB21B021AB2774B1B
:103B78005B791BB213431AB2774B1A81734B9B794B
:103B88001AB2754B5A81724B1B6840F2022293425B
:103B980040D16E4B1B781BB21B021AB26B4B5B7881
:103BA8001BB213431BB21846FCF73CFC64A3D3E9D1
:103BB8000023FCF7CBFD02460B46104619464FF092
:103BC8000002644BFCF798FC02460B461046194667
:103BD800FCF72CFF0346604A13615C4B9B781BB2D1
:103BE8001B021AB2594BDB781BB213431AB25A4B59
:103BF8009A81564B1B791BB21B021AB2534B5B7945
:103C08001BB213431AB2544B9A82504B9B791AB287
:103C1800514BDA824E4B1B6840F20322934240D14B
:103C28004A4B1B781BB21B021AB2484B5B781BB27B
:103C380013431BB21846FCF7F5FB41A3D3E9002355
:103C4800FCF784FD02460B46104619464FF0000269
:103C5800404BFCF751FC02460B4610461946FCF750
:103C6800E5FE03463C4AD361384B9B781BB21B02E6
:103C78001AB2364BDB781BB213431AB2364B1A838F
:103C8800324B1B791BB21B021AB2304B5B791BB249
:103C980013431AB2304B1A842C4B9B791AB22E4B11
:103CA8005A842B4B1B68B3F5017F40D1274B1B78F7
:103CB8001BB21B021AB2254B5B781BB213431BB213
:103CC8001846FCF7AFFB1EA3D3E90023FCF73EFD23
:103CD80002460B46104619464FF000021D4BFCF7F2
:103CE8000BFC02460B4610461946FCF79FFE03469E
:103CF800194A9362154B9B781BB21B021AB2134BDD
:103D0800DB781BB213431AB2134B9A840F4B1B79FF
:103D18001BB21B021AB20D4B5B791BB213431AB2CA
:103D28000D4B9A85094B9B791AB20B4BDA851021FA
:103D3800786802F021F800BF0837BD4680BD00BF93
:103D48000000000000FFBF40B0000020B4040020C5
:103D58009004002000807640CC04002080B58AB012
:103D680000AFF860B9607A60FB7007F110030022B9
:103D78001A605A609A60DA601A615A617B683B611E
:103D88000023BB610023FB61FB783B6207F1100154
:103D9800054BBA68F86801F0A7FD0346002B00BF81
:103DA8002837BD4680BD00BFBC04002080B487B062
:103DB80000AF87ED030AC7ED020A87ED011A3860E4
:103DC80097ED017AD7ED027A77EE677AC7ED057A33
:103DD800BB683B6197ED037AD7ED047A37EE677AD3
:103DE80001223B6802FA03F3013B07EE903AF8EE32
:103DF800E77A67EE276A97ED057AC6EE877AFDEED1
:103E0800E77A17EE903A18461C37BD465DF8047BF2
:103E1800704780B487B000AFF86087ED020AC7ED3D
:103E2800010A396097ED017AD7ED027A77EE677A61
:103E3800C7ED057ABB683B61FB6807EE903AB8EEC0
:103E4800E77AD7ED057A67EE276A01223B6802FA1E
:103E580003F3013B07EE903AF8EEE77A86EEA77A8D
:103E6800D7ED047A77EE277AB0EE670A1C37BD469D
:103E78005DF8047B704780B584B000AFF860B96026
:103E88007A607B68082B70D1BB681B7803F00F033E
:103E98009AB2FB689A80BB681B781B09DBB21A468A
:103EA800FB68DA80BB6801331B781B02BA680232F0
:103EB80012781A43FB689A60BB6803331B781B01AE
:103EC800BA68043212781209D2B21A43FB68DA606F
:103ED800BB6804331B781B0203F47063BA680532AD
:103EE80012781A43FB681A61FB689B681021F2EE8E
:103EF800090ABAEE090A1846FFF78BFFF0EE407A76
:103F0800FB68C3ED057AFB68DB680C21F3EE0E0A4B
:103F1800BBEE0E0A1846FFF77CFFF0EE407AFB680E
:103F2800C3ED067AFB681B690C21F2EE040ABAEEAF
:103F3800040A1846FFF76DFFF0EE407AFB68C3ED00
:103F4800077ABB6806331B7807EE903AF8EE677A73
:103F5800FB68C3ED087ABB6807331B7807EE903A15
:103F6800F8EE677AFB68C3ED097A00BF1037BD46E3
:103F780080BD80B586B000AF78600B467B80134665
:103F88003B807A883B881344FB82FF233B73FF23E3
:103F98007B73FF23BB73FF23FB73FF233B74FF2358
:103FA8007B74FF23BB74FC23FB74FA8A07F10C01B2
:103FB80008237868FFF7D2FE00BF1837BD4680BDDA
:103FC80080B58EB000AFF8610B4687ED050AC7EDE6
:103FD800040A87ED031AC7ED021A87ED012A7B83CD
:103FE8007B8BFB861020B2EE091AFAEE090A97EDD0
:103FF800050AFFF7DBFE0346BB860C20B3EE0E1A5C
:10400800FBEE0E0A97ED040AFFF7D0FE03467B8607
:104018000C209FED311ADFED310A97ED030AFFF707
:10402800C5FE03463B860C20B1EE041ADFED2B0AD1
:1040380097ED020AFFF7BAFE0346FB850C20B2EEA5
:10404800041AFAEE040A97ED010AFFF7AFFE0346D9
:10405800BB85BB8E1B0A9BB2DBB287F82430BB8EB4
:10406800DBB287F825307B8E1B099BB2DBB287F861
:1040780026307B8E5BB21B015AB23B8E1B0A9BB269
:104088005BB213435BB2DBB287F827303B8EDBB2FF
:1040980087F82830FB8D1B099BB2DBB287F82930E3
:1040A800FB8D5BB21B015AB2BB8D1B0A9BB25BB284
:1040B80013435BB2DBB287F82A30BB8DDBB287F8DB
:1040C8002B30FA8E07F124010823F869FFF746FE22
:1040D80000BF3837BD4680BD0000FA43000000002D
:1040E80080B582B000AF78600B467B8013463B807A
:1040F8007B687A881A807B683A889A807B68002275
:10410800DA807B6800229A607B680022DA607B682C
:1041180000221A617B684FF000025A617B684FF0F9
:1041280000029A617B684FF00002DA617B684FF009
:1041380000021A627B684FF000025A627A883B8854
:1041480019460348FFF715FF00BF0837BD4680BD75
:104158008800002080B58AB000AF786187ED040A36
:10416800C7ED030A87ED021AC7ED011A39603B68EB
:104178003A695A617B69B3F9003007EE903AF8EE74
:10418800E77A3B68C3ED067A0021386800F0CCF87E
:10419800B0EE407ADFED4E6AC7EE267A9FED4D7A93
:1041A80067EE877AFDEEE77A17EE903AFB843B6874
:1041B800FA685A617B69B3F90C3007EE903AF8EE69
:1041C800E77A3B68C3ED067A0021386800F0ACF85E
:1041D800B0EE407ADFED3E6AC7EE267A9FED3D7A73
:1041E80067EE877AFDEEE77A17EE903ABB843B6874
:1041F800BA685A617B69B3F9183007EE903AF8EE5D
:10420800E77A3B68C3ED067A0021386800F08CF83D
:10421800B0EE407ADFED2E6AC7EE267A9FED2D7A52
:1042280067EE877AFDEEE77A17EE903A7B843B6873
:104238007A685A617B69B3F9243007EE903AF8EE50
:10424800E77A3B68C3ED067A0021386800F06CF81D
:10425800B0EE407ADFED1E6AC7EE267A9FED1D7A32
:1042680067EE877AFDEEE77A17EE903A3B84B7F966
:1042780026301B121BB2DBB23B76FB8CDBB27B76A3
:10428800B7F924301B121BB2DBB2BB76BB8CDBB296
:10429800FB76B7F922301B121BB2DBB23B777B8C63
:1042A800DBB27B77B7F920301B121BB2DBB2BB77CE
:1042B8003B8CDBB2FB7707F1180108234FF400723F
:1042C8000548FFF74BFD00BF2837BD4680BD00BF3E
:1042D80000007A4400008046B000002080B487B017
:1042E80000AF786187ED040AC7ED030A87ED021A6B
:1042F800C7ED011A87ED002A7B693A691A607B6964
:10430800FA685A607B69BA689A607B697A68DA6089
:104318007B693A681A6100BF1C37BD465DF8047BAB
:104328007047000000000000B0B582B000AF7860B0
:1043380039607B6893ED057A7B68D3ED067A77EE72
:10434800677A7B68C3ED077A7B6893ED007A7B68B0
:10435800D3ED077A67EE277A7B68C3ED097A3B6865
:10436800012B43D17B68DB691846FCF76DF80446DE
:104378000D467B685B691846FCF766F864A3D3E9C9
:104388000023FCF7B9F802460B4620462946FCF7FD
:1043980043FB0346002B29D07B68DB691846FCF7F2
:1043A80053F804460D467B685B691846FCF74CF8E1
:1043B80059A3D3E90023FCF79FF802460B46204691
:1043C8002946FCF70BFB0346002B0FD07B6893EDC7
:1043D8000A7A7B68D3ED016A7B68D3ED077A66EECB
:1043E800A77A77EE277A7B68C3ED0A7A3B68002BB9
:1043F8000FD17B6893ED0A7A7B68D3ED016A7B68FD
:10440800D3ED077A66EEA77A77EE277A7B68C3ED55
:104418000A7A7B6893ED027A7B68D3ED076A7B683A
:10442800D3ED087A76EEE77A67EE277A7B68C3EDF4
:104438000B7A7B6893ED0A7A7B68D3ED037AF1EE09
:10444800677AB4EEE77AF1EE10FA05D87B68D3ED17
:10445800037AF1EE677A11E07B6893ED0A7A7B685C
:10446800D3ED037AB4EEE77AF1EE10FA03DB7B685A
:10447800D3ED037A02E07B68D3ED0A7A7B68C3ED5B
:104488000A7A7B6893ED097A7B68D3ED0A7A37EE6E
:10449800277A7B68D3ED0B7A77EE277A7B68C3EDB2
:1044A8000C7A7B6893ED0C7A7B68D3ED047AF1EE95
:1044B800677AB4EEE77AF1EE10FA05D87B68D3EDA7
:1044C800047AF1EE677A11E07B6893ED0C7A7B68E9
:1044D800D3ED047AB4EEE77AF1EE10FA03DB7B68E9
:1044E800D3ED047A02E07B68D3ED0C7A7B68C3EDE8
:1044F8000C7A7B68DA697B681A627B681B6B07EE4B
:10450800903AB0EE670A0837BD46B0BDAFF30080F9
:10451800333333333333D3BF333333333333D33F8B
:1045280080B500AF9FED132ADFED131A9FED131A24
:10453800DFED130A9FED130A1348FFF7CFFE9FED37
:10454800132ADFED0E1A9FED0D1ADFED0C0AB3EEFC
:104558000E0A0F48FFF7C2FE0B49DFED081A9FED60
:10456800071ADFED060A9FED050A0A48FFF7F2FD74
:1045780000BF80BD00007A440000964300000000A0
:104588000AD7233C9A99193EFC0400200080BB45B9
:1045980030050020CC04002080B586B000AF87ED40
:1045A800010AC7ED000A97ED007AD7ED017A77EE98
:1045B800277AC7ED027A97ED017AD7ED007A77EE80
:1045C800677AC7ED037AD7ED007AB1EE677AD7ED4F
:1045D800017A77EE677AC7ED047A97ED007AD7ED1E
:1045E800017A77EE677AC7ED057AD7ED027A97ED0B
:1045F800037AD7ED046A97ED056A0849F0EE461A82
:10460800B0EE661AF0EE470AB0EE670A0448FFF704
:10461800A1FD00BF1837BD4680BD00BFFC040020C7
:10462800CC04002080B588B000AF87ED030AC7ED41
:10463800020A87ED011A97ED027AD7ED037A37EE71
:10464800277AD7ED017A77EE277AC7ED047A97EDC6
:10465800037AD7ED027A37EE677AD7ED017A77EEEB
:10466800277AC7ED057AD7ED027AB1EE677AD7EDEA
:10467800037A37EE677AD7ED017A77EE277AC7EDB6
:10468800067A97ED027AD7ED037A37EE677AD7ED97
:10469800017A77EE277AC7ED077AD7ED047A97ED96
:1046A800057AD7ED066A97ED076A0849F0EE461ACB
:1046B800B0EE661AF0EE470AB0EE670A0448FFF754
:1046C80049FD00BF2037BD4680BD00BFFC04002067
:1046D800CC04002080B500AF032200210F48FFF76B
:1046E800FFFCB1EE082ADFED0E1A9FED0D1ADFED83
:1046F8000D0AB6EE000A0C48FFF7F0FD9FED082AF8
:10470800DFED071A9FED061ADFED050A9FED040A93
:1047180003210648FFF754FC00BF80BD6405002054
:10472800000000000AD7233C8C05002088000020E8
:1047380080B582B000AF87ED010A9FED092AF7EE38
:10474800001A9FED071AD7ED010A9FED050A03210C
:104758000448FFF735FC00BF0837BD4680BD00BFE1
:10476800000000008800002080B586B000AF87ED0B
:10477800010A3860D7ED017AF5EEC07AF1EE10FA49
:104788001ADD97ED017ADFED8A6AC7EE267AFDEE2B
:10479800E77A17EE903A1BB21A464FF4B47302FB4D
:1047A80003F307EE903AF8EEE77A97ED017A77EEA1
:1047B800677AC7ED017A1DE097ED017ADFED7C6A33
:1047C800C7EE267AFDEEE77A17EE903A1BB21A4644
:1047D8004FF4B47302FB03F307EE903AF8EEE77A6E
:1047E80097ED017A77EE677A9FED717A77EE877A9F
:1047F800C7ED017A7B683B613B681B681846FBF78D
:1048080023FE69A3D3E90023FBF7A0FF02460B466A
:10481800104619464FF00002664BFBF76DFE024644
:104828000B46104619464FF00002624BFBF7AEFCF0
:1048380002460B4610461946FCF7F8F80346FB609B
:10484800D7ED037A9FED5C7AF4EEC77AF1EE10FAB1
:104858004BD5D7ED037A9FED587A77EE877A97EDA7
:10486800047AB4EEE77AF1EE10FA15D597ED047AEA
:10487800D7ED037AB4EEE77AF1EE10FA0CDD4F4A81
:104888003B6953614D4AFB68936100214B48FFF730
:104898004BFD87ED050A73E097ED047AD7ED037AAF
:1048A800B4EEE77AF1EE10FA12DDD7ED047A9FED57
:1048B800407A77EEC77A414BC3ED057A3F4AFB68E9
:1048C800936100213D48FFF72FFD87ED050A57E06A
:1048D8003A4A3B695361394AFB689361002137487A
:1048E800FFF722FD87ED050A4AE0D7ED037A9FED31
:1048F800327A77EEC77A97ED047AB4EEE77AF1EE7A
:1049080010FA15DD97ED047AD7ED037AB4EEE77A5D
:10491800F1EE10FA0CD5294A3B695361274AFB6826
:10492800936100212548FFF7FFFC87ED050A27E082
:1049380097ED047AD7ED037AB4EEE77AF1EE10FA40
:104948000CDD1E4A3B6953611C4AFB6893610021D8
:104958001A48FFF7E9FC87ED050A11E0D7ED047A5C
:104968009FED137A77EE877A144BC3ED057A134AD5
:10497800FB68936100211148FFF7D6FC87ED050A13
:104988009FED0F2AF7EE001A9FED0D1AD7ED050AD5
:104998009FED0B0A03210B48FFF712FB00BF1837E6
:1049A800BD4680BDAFF300804AD8124DFB210940B7
:1049B8000000B44300806640000034438C050020AA
:1049C800000000008800002080B483B000AF786049
:1049D8007B6800221A707B680C225A707B68082258
:1049E8009A707B680122DA707B6802221A717B68F0
:1049F80018460C37BD465DF8047B7047B0B598B0D3
:104A080000AF2E4B07F138041D460FCD0FC42B689D
:104A180023602B4B07F114041D460FCD0FC40FCD97
:104A28000FC42B6823604FF07C53FB654FF00003E5
:104A3800BB654FF07E537B604FF00003BB604FF0C7
:104A48000003FB604FF000033B611E4B7B654C206D
:104A580007F04AF903461C4607F14C0300221A6086
:104A68001A7107F14C031846FFF7AEFF07F14C0324
:104A780007F1140207F138012046FEF761F9124BDD
:104A88001C60114B1B6800211846FEF7A9F92C2061
:104A980007F02AF903461C463B1D97ED161AD7ED79
:104AA800170A97ED150A19462046FDF7C7FE074B6A
:104AB8001C6000BF6037BD46B0BD00BFF4C500082C
:104AC80008C6000800007A44C0050020C40500207C
:104AD80080B500AF0E4B18680E4B0F4A0F49FEF712
:104AE800AAF90F4B1B681B6808331B680C4A10682F
:104AF800094A0A4998470A4B1B680A491846FDF7AC
:104B080029FE0949074800F011F800BF80BD00BF21
:104B1800C0050020E0050020D4050020C8050020BD
:104B2800C4050020E4050020F405002090B585B0F8
:104B380000AF786039607B6893ED007A7B68043356
:104B4800D3ED007A27EE277A7B680833D3ED006A25
:104B58007B680C33D3ED007A66EEA77A37EE276AC6
:104B68007B6893ED007A7B68D3ED007A27EE277A8D
:104B78007B680C33D3ED006A7B680C33D3ED007A85
:104B880066EEA77A77EE277AB6EE007A77EEC77ADE
:104B98003B6808331846F0EE670AB0EE460AFDF7A0
:104BA80067F97B6893ED007A7B680833D3ED007A68
:104BB80027EE277A7B680C33D3ED006A7B680433D1
:104BC800D3ED007A66EEA77A77EE677A77EEA77A62
:104BD800C7ED037AD7ED037AB7EE007AF4EEC77A19
:104BE800F1EE10FA03DD4FF07E53FB600AE0D7EDDB
:104BF800037ABFEE007AF4EEC77AF1EE10FA01D527
:104C0800214BFB603B681C1D97ED030A07F088F8F1
:104C1800F0EE407AC4ED007A7B6893ED007A7B6809
:104C28000C33D3ED007A27EE277A7B680433D3ED73
:104C3800006A7B680833D3ED007A66EEA77A37EE10
:104C4800276A7B6893ED007A7B68D3ED007A27EEBC
:104C5800277A7B680433D3ED006A7B680433D3ED8D
:104C6800007A66EEA77A77EE277AB6EE007A77EEC4
:104C7800C77A3868F0EE670AB0EE460AFDF7F8F82A
:104C880000BF1437BD4690BD000080BF80B483B01C
:104C980000AF7860044A7B681A607B6818460C3756
:104CA800BD465DF8047B704790CA000880B483B0A5
:104CB80000AF7860044A7B681A607B6818460C3736
:104CC800BD465DF8047B704790CA000880B582B085
:104CD80000AF78607868FFF7E9FF2421786807F06B
:104CE80001F87B6818460837BD4680BD80B483B09C
:104CF80000AF78607B689B6807EE903AB0EE670A71
:104D08000C37BD465DF8047B704780B483B000AFB4
:104D180078607B68DB6807EE903AB0EE670A0C377C
:104D2800BD465DF8047B704780B483B000AF7860FF
:104D38007B681B6907EE903AB0EE670A0C37BD46F0
:104D48005DF8047B704780B483B000AF78607B68FF
:104D58001B7E18460C37BD465DF8047B704780B44F
:104D680083B000AF78607B685B7E18460C37BD4621
:104D78005DF8047B7047000098B500AF242006F06A
:104D8800B3FF03461C462046FFF780FF014B1C601B
:104D980000BF98BD1C06002080B500AFFFF7ECFFF0
:104DA8001148FEF7A1FD104800F05AFD02210E48F7
:104DB80000F0E2FF0D48FEF797FD0C4800F050FDAB
:104DC80010210A4800F0D8FF12220949094805F0C5
:104DD80059FEFFF713FEFFF77DFCFFF7A1FB06481E
:104DE80004F0B2F800BF80BD88000020B0000020A9
:104DF80008060020640200208C010020000000004A
:104E0800B0B584B000AF5C4B1B6801335A4A1360DD
:104E18005A4B1B681846FFF7A2FF0346012B0CBF2D
:104E280001230023DBB2002B0AD0DFED550A9FEDEA
:104E3800540AFFF7B1FB9FED520AFFF779FC93E0A4
:104E48004D4B1B68B3F57A7F40F28E80FFF740FE2A
:104E58004A4B1B681846FFF749FF10EE103A1846F0
:104E6800FBF7F2FA42A3D3E90023FBF745FB02461E
:104E78000B4614461D46434B1B681846FBF7E4FADD
:104E880002460B4620462946FBF780F902460B46A8
:104E980010461946FBF7CAFD03463A4A1360394BD8
:104EA800D3ED007A3848B0EE670AFFF75DFC334B64
:104EB8001B681846FFF747FF0346012B0CBF012369
:104EC8000023DBB2002B20D02C4B1B681846FFF7C1
:104ED8001CFFF0EE407A9FED2D7A67EE877AC7EDDA
:104EE800017A264B1B681846FFF71EFFF0EE407A42
:104EF8009FED277A67EE877AC7ED007AD7ED000A2B
:104F080097ED010AFFF748FB2EE01C4B1B6818467B
:104F1800FFF719FF0346022B0CBF01230023DBB266
:104F2800002B21D0154B1B681846FFF7EEFEF0EE5C
:104F3800407A9FED167A67EE877AC7ED037A0F4BB2
:104F48001B681846FFF7F0FEF0EE407A9FED107AE6
:104F580067EE877AC7ED027A9FED0E1AD7ED020A3F
:104F680097ED030AFFF75EFB00BF1037BD46B0BDE3
:104F78009A9999999999B93F040600201C0600202E
:104F88000000000000060020C00400200000FA44D1
:104F980000803B4500401C4580B582B000AF78607A
:104FA8007B68044A934201D1FFF72AFF00BF083704
:104FB800BD4680BD8C01002080B582B000AF78600E
:104FC8000B467B807B680C4A934210D17B88122B5E
:104FD80008D10A4802F068FB094B1B6809491846C2
:104FE800FEF76AFB12220749034805F04BFD00BF94
:104FF8000837BD4680BD00BF64020020DC000020E9
:105008001C06002008060020DFF834D0FCF7EAFA76
:105018000C480D490D4A002302E0D458C45004330B
:10502800C4188C42F9D30A4A0A4C002301E01360E1
:105038000432A242FBD307F0D5F8FCF789F8704791
:1050480000000220000000206C000020B4CA000804
:105058006C00002070070020FEE7000080B500AF5C
:105068000E4B1B680D4A43F4007313600B4B1B680F
:105078000A4A43F480631360084B1B68074A43F4E9
:1050880080731360032001F09FF90F2000F008F8E7
:10509800FCF79CF90023184680BD00BF003C024085
:1050A80080B582B000AF7860124B1A68124B1B783B
:1050B80019464FF47A73B3FBF1F3B2FBF3F31846D6
:1050C80001F0E6F90346002B01D001230EE07B68CE
:1050D8000F2B0AD8002279684FF0FF3001F094F9BD
:1050E800064A7B681360002300E00123184608374E
:1050F800BD4680BD000000201800002014000020DC
:1051080080B400AF064B1B781A46064B1B68134445
:10511800044A136000BFBD465DF8047B704700BFBA
:10512800180000202006002080B400AF034B1B6845
:105138001846BD465DF8047B704700BF2006002076
:1051480080B584B000AF7860FFF7EEFFB8607B6889
:10515800FB60FB68B3F1FF3F05D00A4B1B781A468A
:10516800FB681344FB6000BFFFF7DEFF0246BB6825
:10517800D31AFA689A42F7D800BF00BF1037BD4665
:1051880080BD00BF1800002080B584B000AF7860F3
:105198007B68002B01D101230FE27B681B68914AD1
:1051A800934209D07B681B688F4A934204D04FF41E
:1051B8008F718E48FCF760F87B681B7E002B08D047
:1051C8007B681B7E012B04D040F21F118748FCF737
:1051D80053F87B685B7E002B08D07B685B7E012BD5
:1051E80004D04FF490718148FCF746F87B689B7EA9
:1051F800002B08D07B689B7E012B04D040F2211144
:105208007A48FCF739F87B68DB7E002B08D07B688E
:10521800DB7E012B04D04FF491717448FCF72CF815
:105228007B681B7F002B08D07B681B7F012B04D079
:1052380040F223116D48FCF71FF87B685B7F002B59
:1052480008D07B685B7F012B04D04FF492716748CC
:10525800FCF712F87B689B68002B13D07B689B686F
:10526800B3F1804F0ED07B689B68B3F1004F09D033
:105278007B689B68B3F1404F04D040F225115B482E
:10528800FBF7FAFF7B68DB68002B13D07B68DB68D1
:10529800B3F1807F0ED07B68DB68B3F1007F09D063
:1052A8007B68DB68B3F1407F04D04FF493714F48BB
:1052B800FBF7E2FF7B681B69002B4FD07B681B69FB
:1052C800B3F5803F4AD07B681B69B3F5003F45D0F2
:1052D8007B681B69B3F5403F40D07B681B69B3F519
:1052E800802F3BD07B681B69B3F5A02F36D07B6835
:1052F8001B69B3F5C02F31D07B681B69B3F5E02F6C
:105308002CD07B681B69B3F5002F27D07B681B69FD
:10531800B3F5102F22D07B681B69B3F5202F1DD061
:105328007B681B69B3F5302F18D07B681B69B3F510
:10533800402F13D07B681B69B3F5502F0ED07B68C4
:105348001B69B3F5602F09D07B681B69B3F5702F13
:1053580004D040F227112548FBF78EFF7B685B6974
:10536800002B27D07B685B69B3F5801F22D07B6850
:105378005B69B3F5001F1DD07B685B69B3F5401FFF
:1053880018D07B685B69B3F5800F13D07B685B69C5
:10539800B3F5A00F0ED07B685B69B3F5C00F09D0D9
:1053A8007B685B69B3F5E00F04D04FF494710F4844
:1053B800FBF762FF7B685B68002B04D07B685B6847
:1053C800B3F5806F04D940F229110848FBF754FF60
:1053D8007B6893F82030DBB2002B09D17868FBF7A3
:1053E80041FC05E000640040006800402CC600084D
:1053F8007B681B681A687B681B6842F001021A60A8
:10540800FFF792FEF86012E0FFF78EFE0246FB6897
:10541800D31A0A2B0BD97B685B6A43F400327B688A
:105428005A627B68052283F820200123C5E07B6847
:105438001B685B6803F00103002BE5D07B681B68E1
:105448001A687B681B6822F002021A60FFF76CFE7C
:10545800F86012E0FFF768FE0246FB68D31A0A2BD1
:105468000BD97B685B6A43F400327B685A627B68BD
:10547800052283F8202001239FE07B681B685B6876
:1054880003F00203002BE5D17B681B7E012B08D1BA
:105498007B681B681A687B681B6842F080021A6088
:1054A80007E07B681B681A687B681B6822F080022B
:1054B8001A607B685B7E012B08D17B681B681A68C1
:1054C8007B681B6842F040021A6007E07B681B6833
:1054D8001A687B681B6822F040021A607B689B7E12
:1054E800012B08D17B681B681A687B681B6842F02F
:1054F80020021A6007E07B681B681A687B681B68D3
:1055080022F020021A607B68DB7E012B08D17B68C1
:105518001B681A687B681B6822F010021A6007E093
:105528007B681B681A687B681B6842F010021A6067
:105538007B681B7F012B08D17B681B681A687B6816
:105548001B6842F008021A6007E07B681B681A684B
:105558007B681B6822F008021A607B685B7F012B5E
:1055680008D17B681B681A687B681B6842F00402D4
:105578001A6007E07B681B681A687B681B6822F062
:1055880004021A607B689A687B68DB681A437B6848
:105598001B691A437B685B6942EA03017B685B68A5
:1055A8005A1E7B681B680A43DA617B6800225A62CC
:1055B8007B68012283F82020002318461037BD4657
:1055C80080BD00BF80B586B000AF786039607B6869
:1055D8001B687B617B6893F82030FB74FB7C012B94
:1055E80003D0FB7C022B40F02C813B681B68B3F591
:1055F800803F04D340F252319748FBF73DFE3B68A9
:105608005B68B3F5803F04D340F253319248FBF70F
:1056180033FE3B689B68B3F5803F04D34FF4557164
:105628008D48FBF729FE3B68DB68B3F5803F04D360
:1056380040F255318848FBF71FFE3B689B69002BF9
:1056480008D03B689B69012B04D040F25631824850
:10565800FBF712FE3B68DB69002B08D03B68DB696F
:10566800012B04D040F257317B48FBF705FE3B681D
:105678001B69002B08D03B681B69012B04D04FF431
:1056880056717548FBF7F8FD3B681B6A002B08D07C
:105698003B681B6A012B04D040F259316E48FBF776
:1056A800EBFD6E4B7B613B685B691B2B04D94FF4A8
:1056B8005D716948FBF7E0FD3B685B6A1B2B04D909
:1056C80040F275316448FBF7D7FD7B69D3F80032A7
:1056D80043F001027B69C3F800227B69D3F80032EA
:1056E80023F47C527B69C3F800227B69D3F800223B
:1056F8003B685B6A1B021A437B69C3F800223B685C
:105708005B6903F01F03012202FA03F3FB607B6964
:10571800D3F81C22FB68DB431A407B69C3F81C22C0
:105728003B68DB69002B23D17B69D3F80C22FB682B
:10573800DB431A407B69C3F80C223B68DB68190419
:105748003B685B689BB23A68526919437B69483287
:1057580043F832103B689B6819043B681B689AB28F
:105768003B685B690A4379694833DB000B445A603C
:105778003B68DB69012B22D17B69D3F80C22FB68DB
:105788001A437B69C3F80C223B681B6819043B6801
:105798005B689BB23A68526919437B69483243F89F
:1057A80032103B689B6819043B68DB689AB23B6817
:1057B8005B690A4379694833DB000B445A603B68EC
:1057C8009B69002B09D17B69D3F80422FB68DB4372
:1057D8001A407B69C3F8042207E07B69D3F80422E6
:1057E800FB681A437B69C3F804223B681B69002BDA
:1057F80009D17B69D3F81422FB68DB431A407B6923
:10580800C3F8142207E07B69D3F81422FB681A4313
:105818007B69C3F814223B681B6A012B07D17B699B
:10582800D3F81C22FB681A437B69C3F81C227B69E6
:10583800D3F8003223F001027B69C3F80022002369
:1058480006E07B685B6A43F480227B685A62012326
:1058580018461837BD4680BD2CC6000800640040B5
:1058680080B584B000AF78607B6893F82030DBB2F5
:10587800012B2ED17B68022283F820207B681B68CD
:105888001A687B681B6822F001021A60FFF74CFC5B
:10589800F86012E0FFF748FC0246FB68D31A0A2BAF
:1058A8000BD97B685B6A43F400327B685A627B6879
:1058B800052283F82020012312E07B681B685B68BF
:1058C80003F00103002BE5D17B6800225A62002314
:1058D80006E07B685B6A43F400227B685A62012316
:1058E80018461037BD4680BD80B588B000AFF86057
:1058F800B9607A603B60FB6893F82030FB77FB68FF
:105908001B689B68BB61BB689B68002B08D0BB68A1
:105918009B68042B04D040F2EA417F48FBF7ACFCBB
:10592800BB68DB68002B08D0BB68DB68022B04D09F
:1059380040F2EB417848FBF79FFCBB681B69082BDA
:1059480004D940F2EC417448FBF796FCBB689B68AD
:10595800002B0AD1BB681B68B3F5006F0FD340F268
:10596800EF416D48FBF788FC09E0BB685B68B3F161
:10597800005F04D340F2F3416748FBF77DFCBB6846
:105988001B7D002B08D0BB681B7D012B04D040F287
:10599800F5416148FBF770FCFB7F012B03D0FB7FCF
:1059A800022B40F0AD80BB6903F08063002B0AD165
:1059B800BB6903F00063002B05D1BB6903F080537A
:1059C800002B00F09580BB691B0E03F003037B617D
:1059D80001227B699A403B681A60BB689B68002B70
:1059E8000DD1BB681B685A05BB68DB68F968096894
:1059F8001A437B6918331B010B441A600FE0BB681C
:105A08005B68DA00BB689B681A43BB68DB68F968A7
:105A180009681A437B6918331B010B441A60FB6839
:105A28001968BB681A697B6918331B010B44043376
:105A38001A60BB681B7D012B11D1FB681A687B6952
:105A480018331B01134404331B68FA68116843F4C4
:105A580080727B6918331B010B4404331A607B681E
:105A680007331B781A067B6806331B781B041A4316
:105A78007B6805331B781B0213437A68043212785B
:105A88001046FA68116843EA00027B691B010B445F
:105A980003F5C6731A607B6803331B781A067B68A4
:105AA80002331B781B041A437B6801331B781B02E3
:105AB80013437A6812781046FA68116843EA0002BC
:105AC8007B691B010B4403F5C4731A60FB681A68F1
