:020000040800F2
:1000000000000220BD380008D90A0008E10A0008F3
:10001000E90A0008F10A0008F90A000800000000D7
:10002000000000000000000000000000010B0008BC
:100030000F0B0008000000001D0B00082B0B000830
:100040000D3900080D3900080D3900080D39000878
:100050000D3900080D3900080D3900080D39000868
:100060000D3900080D3900080D3900080D39000858
:10007000390B00080D3900080D3900080D3900084A
:100080000D3900080D3900080D3900080D39000838
:100090004D0B00080D3900080D3900080D39000816
:1000A0000D3900080D3900080D3900080D39000818
:1000B0000D3900080D3900080D3900080D39000808
:1000C0000D3900080D3900080D3900080D390008F8
:1000D0000D3900080D3900080D390008610B0008C2
:1000E0000D3900080D3900080D3900080D390008D8
:1000F0000D3900080D3900080D3900080D390008C8
:100100000D3900080D3900080D3900080D390008B7
:100110000D3900080D390008750B00080D3900086D
:100120000D390008890B00080D3900080D39000849
:100130000D3900080D3900080D3900080D39000887
:100140000D3900089D0B00080D3900080D39000815
:100150000D390008B10B0008C50B0008D90B0008C9
:100160000D3900080D3900080D3900080D39000857
:100170000D3900080D3900080D3900080000000095
:080180000D3900080D390008DB
:1001880053B94AB9002908BF00281CBF4FF0FF31F6
:100198004FF0FF3000F00CB8ADF1080C6DE904CE5B
:1001A8000AF0F4FCDDF804E0DDE9022304B070474E
:1001B800704700BF0348044B834202D0034B03B18E
:1001C800184770476C0000206C00002000000000F9
:1001D8000548064B1B1AD90F01EBA301491002D0A1
:1001E800034B03B1184770476C0000206C000020D7
:1001F8000000000010B5064C237843B9FFF7DAFF7A
:10020800044B13B10448AFF300800123237010BDE1
:100218006C0000200000000050AE000808B5054B37
:100228001BB105490548AFF30080BDE80840FFF75A
:10023800CFBF00BF000000007000002050AE0008D3
:1002480080B500AF174B184A1A60164B03225A6044
:10025800144B00229A60134B0022DA60114B4FF4C2
:10026800A0221A610F4B4FF4C0025A610D4B0022B5
:100278001A760C4B00225A760A4B00229A76094BC2
:100288000122DA76074B00221A77064B01225A77A9
:10029800044803F0CFFB0346002B01D000F040FBDD
:1002A80000BF80BD880000200064004080B500AF1A
:1002B800174B184A1A60164B03225A60144B002237
:1002C8009A60134B0022DA60114B4FF4A0221A6196
:1002D8000F4B4FF4C0025A610D4B00221A760C4B9B
:1002E80000225A760A4B00229A76094B0122DA76C6
:1002F800074B00221A77064B01225A77044803F06D
:1003080099FB0346002B01D000F00AFB00BF80BD1B
:10031800B00000200068004080B58CB000AF786065
:1003280007F11C0300221A605A609A60DA601A61A9
:100338007B681B684A4A93423DD14A4B1B6801338C
:10034800484A1360474B1B68012B0DD10023BB6142
:10035800454B1B6C444A43F000731364424B1B6CBF
:1003680003F00073BB61BB6900237B613E4B1B6BD1
:100378003D4A43F0080313633B4B1B6B03F0080330
:100388007B617B690323FB6102233B6200237B6261
:100398000323BB620923FB6207F11C031946334898
:1003A80005F054FA00220121142004F083FC1420E3
:1003B80004F0ACFC4FE07B681B682D4A93424AD19D
:1003C80000233B61284B1B6C274A43F0806313646E
:1003D800254B1B6C03F080633B613B69214B1B6819
:1003E8000133204A13601F4B1B68012B0DD10023DA
:1003F800FB601D4B1B6C1C4A43F0007313641A4BC3
:100408001B6C03F00073FB60FB680023BB60164B9A
:100418001B6B154A43F002031363134B1B6B03F06A
:100428000203BB60BB686023FB6102233B620023BD
:100438007B620323BB620923FB6207F11C03194695
:100448000C4805F003FA00220121412004F032FC97
:10045800412004F05BFC00BF3037BD4680BD00BFC3
:1004680000640040D800002000380240000C024020
:10047800006800400004024080B582B000AF00234D
:100488007B601F4B1B6B1E4A43F4001313631C4B0A
:100498001B6B03F400137B607B6800233B60184BE5
:1004A8001B6B174A43F480031363154B1B6B03F450
:1004B80080033B603B68002200210C2004F0FAFB1B
:1004C8000C2004F023FC00220021392004F0F2FB68
:1004D800392004F01BFC00220021452004F0EAFB2F
:1004E800452004F013FC00220021462004F0E2FB22
:1004F800462004F00BFC00BF0837BD4680BD00BF96
:100508000038024080B58EB000AF07F12403002206
:100518001A605A609A60DA601A6100233B62A24B43
:100528001B6BA14A43F0100313639F4B1B6B03F033
:1005380010033B623B6A0023FB619B4B1B6B9A4A8F
:1005480043F002031363984B1B6B03F00203FB6138
:10055800FB690023BB61944B1B6B934A43F0400338
:100568001363914B1B6B03F04003BB61BB69002312
:100578007B618D4B1B6B8C4A43F0080313638A4BDA
:100588001B6B03F008037B617B6900233B61864B8F
:100598001B6B854A43F004031363834B1B6B03F007
:1005A80004033B613B690023FB607F4B1B6B7E4A66
:1005B80043F0010313637C4B1B6B03F00103FB60E7
:1005C800FB680023BB60784B1B6B774A43F480734E
:1005D8001363754B1B6B03F48073BB60BB6800230C
:1005E8007B60714B1B6B704A43F0800313636E4B47
:1005F8001B6B03F080037B607B6800233B606A4BC6
:100608001B6B694A43F020031363674B1B6B03F0B2
:1006180020033B603B6801220321644805F0F6FB98
:1006280000224FF48071624805F0F0FB012210218E
:10063800604805F0EBFB01224CF201015E4805F031
:10064800E5FB4FF6FF737B620323BB620023FB626B
:1006580007F124031946594805F0F8F843F60673DC
:100668007B620323BB620023FB6207F12403194664
:10067800514805F0EBF84BF6FF537B620323BB624E
:100688000023FB6207F1240319464D4805F0DEF804
:100698004BF6FC737B620323BB620023FB6207F10A
:1006A80024031946474805F0D1F84FF2FF237B622F
:1006B8000323BB620023FB6207F1240319463C486D
:1006C80005F0C4F849F66F537B620323BB6200232D
:1006D800FB6207F124031946364805F0B7F840F6DF
:1006E800FF737B620323BB620023FB6207F12403D1
:1006F8001946354805F0AAF84FF6FC737B620323C8
:10070800BB620023FB6207F1240319462F4805F05A
:100718009DF803237B620123BB620023FB62032352
:100728003B6307F124031946204805F08FF84FF47E
:1007380080737B620123BB620023FB6200233B635F
:1007480007F1240319461A4805F080F84FF6BC73E0
:100758007B620323BB620023FB6207F12403194673
:10076800124805F073F810237B620123BB62002353
:10077800FB6203233B6307F1240319460D4805F088
:1007880065F84CF201037B620123BB620023FB6224
:1007980003233B6307F124031946074805F056F87D
:1007A80000BF3837BD4680BD003802400014024003
:1007B800000802400000024000040240001002400D
:1007C80000180240000C024000200240001C0240B9
:1007D80080B500AF094B0A4A1A60084B04225A60D8
:1007E800064B4FF4C8729A60044805F03BFB034679
:1007F800002B01D000F094F800BF80BDDC00002081
:100808000030004080B500AF03F07EF800F01CF81F
:10081800FFF778FEFFF730FEFFF712FD00F0C4FA8D
:1008280000F090F800F04AFA00F022FCFFF7D0FF41
:10083800FFF73CFD00F0EEFA00F046FC00F0EEFB9E
:1008480002F0BCFF00BFFDE780B594B000AF07F130
:1008580020033022002118460AF0B8F807F10C03EB
:1008680000221A605A609A60DA601A610023BB603D
:10087800294B1B6C284A43F080531364264B1B6C8E
:1008880003F08053BB60BB6800237B60234B1B686D
:10089800224A43F480431360204B1B6803F48043CF
:1008A8007B607B6809233B624FF480337B620123C2
:1008B8007B630223BB634FF48003FB6306233B6423
:1008C800A8237B640223BB640423FB6407F1200391
:1008D800184605F04FFB0346002B01D000F020F826
:1008E8000F23FB6002233B6100237B614FF4A0537D
:1008F800BB614FF48053FB6107F10C0305211846D7
:1009080005F064FE0346002B01D000F009F800BF93
:100918005037BD4680BD00BF00380240007000401F
:1009280080B400AF72B600BF00BFFDE780B483B0EB
:1009380000AF7860396000BF0C37BD465DF8047BB6
:100948007047000080B500AF174B184A1A60164B65
:100958004FF482725A60144B00229A60124B0022A4
:10096800DA60114B02221A610F4B01225A610E4BB9
:100978004FF400729A610C4B3822DA610A4B00225C
:100988001A62094B00225A62074B00229A62064BF0
:100998000A22DA62044806F0A1F80346002B01D0C7
:1009A800FFF7BEFF00BF80BDE80000200030014017
:1009B80080B58AB000AF786007F1140300221A608E
:1009C8005A609A60DA601A617B681B68284A934209
:1009D80049D100233B61274B5B6C264A43F4805383
:1009E8005364244B5B6C03F480533B613B690023E5
:1009F800FB60204B1B6B1F4A43F0020313631D4B24
:100A08001B6B03F00203FB60FB680023BB60194B00
:100A18001B6B184A43F001031363164B1B6B03F05F
:100A28000103BB60BB6818237B610223BB61002301
:100A3800FB6103233B6205237B6207F1140319461C
:100A48000D4804F003FF80237B610223BB61002370
:100A5800FB6103233B6205237B6207F114031946FC
:100A6800064804F0F3FE00BF2837BD4680BD00BF2E
:100A780000300140003802400004024000000240FB
:100A880080B483B000AF00237B60104B5B6C0F4ACF
:100A980043F4804353640D4B5B6C03F480437B60E9
:100AA8007B6800233B60094B1B6C084A43F080536A
:100AB8001364064B1B6C03F080533B603B6800BF1C
:100AC8000C37BD465DF8047B704700BF0038024014
:100AD80080B400AF00BFFDE780B400AF00BFFDE702
:100AE80080B400AF00BFFDE780B400AF00BFFDE7F2
:100AF80080B400AF00BFFDE780B400AF00BFBD46C3
:100B08005DF8047B704780B400AF00BFBD465DF858
:100B1800047B704780B400AF00BFBD465DF8047B1E
:100B2800704780B500AF02F041FF00BF80BD0000F4
:100B380080B500AF024804F01FFC00BF80BD00BFB5
:100B48005403002080B500AF024803F09DFD00BFAC
:100B580080BD00BF8800002080B500AF024808F0C3
:100B680045FC00BF80BD00BF6402002080B500AF17
:100B7800024807F027F800BF80BD00BF8C010020A5
:100B880080B500AF024804F0F7FB00BF80BD00BF8E
:100B9800B403002080B500AF024803F075FD00BF24
:100BA80080BD00BFB000002080B500AF024804F04F
:100BB800E3FB00BF80BD00BF1404002080B500AF78
:100BC800024804F0D9FB00BF80BD00BFF40200203A
:100BD80080B500AF024808F009FC00BF80BD00BF27
:100BE800AC02002080B400AF01231846BD465DF872
:100BF800047B704780B582B000AF7860396009F037
:100C080041FF034616221A604FF0FF331846083793
:100C1800BD4680BD80B582B000AF78604FF0FF312F
:100C28007868FFF7E7FF00BFFDE7000080B586B0F2
:100C380000AF7860144A154BD31A7B617B693B611E
:100C4800134B1B68002B02D1114B124A1A60104B30
:100C58001A687B6813443A699A4207D209F012FF6E
:100C680003460C221A604FF0FF3309E0084B1B685B
:100C7800FB60074B1A687B681344054A1360FB68DE
:100C880018461837BD4680BD000002200004000049
:100C9800400100209806002080B400AF064BD3F82E
:100CA8008830054A43F47003C2F8883000BFBD4657
:100CB8005DF8047B704700BF00ED00E080B58EB0A2
:100CC80000AF07F1280300221A605A609A60DA60C0
:100CD80007F1200300221A605A603B1D00221A60A7
:100CE8005A609A60DA601A615A619A612C4B2D4AEF
:100CF8001A602B4B53225A60294B00229A60284BCA
:100D08000022DA60264B00221A61254B00229A61E4
:100D1800234806F057FC0346002B01D0FFF700FEDE
:100D28004FF48053BB6207F1280319461C4807F0AB
:100D380011FA0346002B01D0FFF7F2FD184806F020
:100D48001FFE0346002B01D0FFF7EAFD00233B629C
:100D580000237B6207F120031946114808F022F9A5
:100D68000346002B01D0FFF7DBFD60237B600023E7
:100D7800BB600023FB6000237B613B1D08221946F2
:100D8800074807F00FF80346002B01D0FFF7C8FD0E
:100D9800034800F0E1F800BF3837BD4680BD00BF0A
:100DA800440100200008004080B582B000AF3B46F7
:100DB80000221A605A60154B154A1A60134B5322C9
:100DC8005A60124B00229A60104B40F2E732DA6008
:100DD8000E4B00229A610D4806F0F4FB0346002BE7
:100DE80001D0FFF79DFD00233B6000237B603B465D
:100DF8001946064808F0D6F80346002B01D0FFF73D
:100E08008FFD00BF0837BD4680BD00BF8C010020A4
:100E18000010004080B588B000AF3B1D00221A606A
:100E28005A609A60DA601A615A619A611E4B1F4AC9
:100E38001A601D4B00225A601B4B00229A601A4B05
:100E48004FF6FF72DA60184B00221A61164B002227
:100E58009A61154806F0B6FB0346002B01D0FFF750
:100E68005FFD114806F08CFD0346002B01D0FFF70B
:100E780057FD60237B600023BB600023FB600023D9
:100E88007B613B1D00221946074806F08BFF03468D
:100E9800002B01D0FFF744FD034800F05DF800BFC8
:100EA8002037BD4680BD00BFD4010020004401406A
:100EB80080B586B000AF78607B681B68224A934291
:100EC8000ED100237B61214B1B6C204A43F00403A5
:100ED80013641E4B1B6C03F004037B617B692EE0DB
:100EE8007B681B681A4A934216D100233B61174B53
:100EF8001B6C164A43F010031364144B1B6C03F06D
:100F080010033B613B6900220221362003F0D2FE28
:100F1800362003F0FBFE12E07B681B680D4A934203
:100F28000DD10023FB60094B5B6C084A43F4003386
:100F38005364064B5B6C03F40033FB60FB6800BF33
:100F48001837BD4680BD00BF000800400038024089
:100F5800001000400044014080B58AB000AF7860BE
:100F680007F1140300221A605A609A60DA601A6165
:100F78007B681B68244A93421FD100233B61234BA3
:100F88001B6B224A43F008031363204B1B6B03F0CF
:100F980008033B613B694FF480437B610223BB61DB
:100FA8000023FB6100233B6202237B6207F11403E9
:100FB8001946174804F04AFC22E07B681B68154A6A
:100FC80093421DD10023FB60104B1B6B0F4A43F06B
:100FD800200313630D4B1B6B03F02003FB60FB68BE
:100FE80040237B610223BB610023FB6100233B623A
:100FF80003237B6207F114031946074804F026FC13
:1010080000BF2837BD4680BD0008004000380240B8
:10101800000C0240004401400014024080B500AFBB
:10102800114B124A1A60104B4FF47A325A600E4B29
:1010380000229A600C4B0022DA600B4B00221A61E6
:10104800094B0C225A61084B00229A61064B002278
:10105800DA61054808F098F80346002B01D0FFF73D
:101068005FFC00BF80BD00BF1C02002000100140D3
:1010780080B500AF114B124A1A60104B114A5A60E2
:101088000E4B4FF480529A600C4B0022DA600B4BE7
:101098004FF480621A61094B04225A61074B0022FF
:1010A8009A61064B0022DA61044808F06DF803469D
:1010B800002B01D0FFF734FC00BF80BD6402002084
:1010C80000480040A086010080B500AF114B124ACD
:1010D8001A60104B4FF4E1325A600E4B00229A60AE
:1010E8000C4B0022DA600B4B00221A61094B0C22D0
:1010F8005A61084B00229A61064B0022DA610548C2
:1011080008F042F80346002B01D0FFF709FC00BFA6
:1011180080BD00BFAC0200200014014080B58EB035
:1011280000AF786007F1240300221A605A609A60C1
:10113800DA601A617B681B68734A93427AD100238C
:101148003B62724B5B6C714A43F0100353646F4B04
:101158005B6C03F010033B623B6A0023FB616B4B43
:101168001B6B6A4A43F002031363684B1B6B03F063
:101178000203FB61FB690023BB61644B1B6B634A81
:1011880043F001031363614B1B6B03F00103BB6165
:10119800BB6980237B620223BB620023FB620323BB
:1011A8003B6307237B6307F124031946584804F07F
:1011B8004DFB4FF400737B620223BB620023FB628A
:1011C80003233B6307237B6307F124031946514834
:1011D80004F03CFB504B514A1A604F4B4FF00062F1
:1011E8005A604D4B40229A604B4B0022DA604A4BC2
:1011F8004FF480621A61484B00225A61464B002224
:101208009A61454B0022DA61434B4FF400321A626F
:10121800414B00225A62404803F09CFD0346002BD4
:1012280001D0FFF77DFB7B683B4A9A633A4A7B68AB
:10123800936316E17B681B68394A934278D100238F
:101248007B61324B1B6C314A43F4802313642F4B70
:101258001B6C03F480237B617B6900233B612B4B70
:101268001B6B2A4A43F004031363284B1B6B03F0E0
:1012780004033B613B694FF440637B620223BB621A
:101288000023FB6203233B6307237B6307F12403EB
:101298001946244804F0DAFA234B244A1A60224BF0
:1012A8004FF000625A60204B00229A601E4B0022C9
:1012B800DA601D4B4FF480621A611B4B00225A61A1
:1012C800194B00229A61184B0022DA61164B4FF431
:1012D80040321A62144B00225A62134803F03AFD56
:1012E8000346002B01D0FFF71BFB7B680E4ADA632D
:1012F8000D4A7B68936300220021272003F0DAFC63
:10130800272003F003FDACE0001001400038024044
:101318000004024000000240F4020020B8640240C9
:1013280000480040000802405403002028600240A2
:101338007B681B684D4A934240F093800023FB6012
:101348004B4B5B6C4A4A43F020035364484B5B6C3D
:1013580003F02003FB60FB680023BB60444B1B6B5E
:10136800434A43F040031363414B1B6B03F04003B4
:10137800BB60BB684FF484437B620223BB620023DB
:10138800FB6203233B6308237B6307F124031946AD
:10139800384804F05BFA384B384A1A60364B4FF03D
:1013A80020625A60344B00229A60334B0022DA6084
:1013B800314B4FF480621A612F4B00225A612E4B39
:1013C80000229A612C4B0022DA612B4B4FF44032F9
:1013D8001A62294B00225A62274803F0BBFC0346D5
:1013E800002B01D0FFF79CFA7B68234ADA63224A74
:1013F8007B689363224B234A1A60214B4FF020628B
:101408005A601F4B40229A601D4B0022DA601C4B29
:101418004FF480621A611A4B00225A61184B00225D
:101428009A61174B0022DA61154B4FF440321A6269
:10143800134B00225A62124803F08CFC0346002B1F
:1014480001D0FFF76DFA7B680D4A9A630C4A7B68F6
:10145800936300220021472003F02CFC472003F06F
:1014680055FC00BF3837BD4680BD00BF00140140A1
:101478000038024000180240B403002028640240EB
:1014880014040020A064024080B487B000AFF86064
:10149800B9607A603B603B687B6113E0FB681A1DAA
:1014A800FA6093ED007ABB681A1DBA60D3ED007A32
:1014B8007B681A1D7A6077EE277AC3ED007A7B691C
:1014C800013B7B617B69002BE8D100BF00BF1C3763
:1014D800BD465DF8047B704780B487B000AFF86004
:1014E80087ED020A79603A603B687B6110E0FB682F
:1014F8001A1DFA6093ED007A7B681A1D7A60D7EDA1
:10150800027A67EE277AC3ED007A7B69013B7B613B
:101518007B69002BEBD100BF00BF1C37BD465DF8CF
:10152800047B704780B4A1B000AF87ED030AC7ED14
:10153800020A7860D7ED027AF5EEC07AF1EE10FA79
:1015480040F38E80D7ED036A97ED027AC6EE877A6C
:10155800C7ED1F7A0023BB674FF000037B67D7ED09
:101568001F7AF5EEC07AF1EE10FA07D50123BB67B2
:10157800D7ED1F7AF1EE677AC7ED1F7AD7ED1F7A9C
:10158800B7EE007AF4EEC77AF1EE10FA31DDF7EE35
:10159800006A97ED1F7AC6EE877AC7ED1F7AFB6F50
:1015A8003B67B54BFB660123BB660123BB6614E0B2
:1015B80097ED1C7AD7ED1B7A27EE277ABB6EC3F11D
:1015C8000903AE4A9B001344D3ED007A77EE277ADD
:1015D800C7ED1B7ABB6E0133BB66BB6E092BE7DD1B
:1015E800D7ED1B7A9FEDA67A77EE677AC7ED1D7A5D
:1015F80028E0FB6F7B66A04B3B660123FB6501235C
:10160800FB6514E097ED197AD7ED187A27EE277A5B
:10161800FB6DC3F10903994A9B001344D3ED007A8B
:1016280077EE277AC7ED187AFB6D0133FB65FB6D02
:10163800092BE7DDD7ED187A97ED1D7A77EE277A33
:10164800C7ED1D7ABB6F002B05D0D7ED1D7AF1EEE3
:10165800677AC7ED1D7A7A6F7B681A60002375E197
:10166800D7ED027AF5EEC07AF1EE10FA40F14D812D
:10167800D7ED037AF5EEC07AF1EE10FA40F39380D5
:10168800D7ED036A97ED027AC6EE877AC7ED167A28
:1016980000237B654FF000033B65D7ED167AF5EE26
:1016A800C07AF1EE10FA07D501237B65D7ED167ADB
:1016B800F1EE677AC7ED167AD7ED167AB7EE007AAB
:1016C800F4EEC77AF1EE10FA31DDF7EE006A97ED25
:1016D800167AC6EE877AC7ED167ABB6DFB64664B41
:1016E800BB6401237B6401237B6414E097ED137AC8
:1016F800D7ED127A27EE277A7B6CC3F109035F4A8C
:101708009B001344D3ED007A77EE277AC7ED127A5F
:101718007B6C01337B647B6C092BE7DDD7ED127A98
:101728009FED577A77EE677AC7ED147A28E0BB6D9C
:101738003B64514BFB630123BB630123BB6314E090
:1017480097ED107AD7ED0F7A27EE277ABB6BC3F1A6
:1017580009034A4A9B001344D3ED007A77EE277AAF
:10176800C7ED0F7ABB6B0133BB63BB6B092BE7DD9E
:10177800D7ED0F7A97ED147A77EE277AC7ED147ABA
:101788007B6D002B05D0D7ED147AF1EE677AC7EDA3
:10179800147AD7ED147A9FED3B7A77EE877A7B68D7
:1017A800C3ED007AAFE0D7ED037AF5EEC07AF1EE3B
:1017B80010FA40F19C80D7ED036A97ED027AC6EEE5
:1017C800877AC7ED0D7A00233B634FF00003FB6275
:1017D800D7ED0D7AF5EEC07AF1EE10FA07D50123B0
:1017E8003B63D7ED0D7AF1EE677AC7ED0D7AD7ED49
:1017F8000D7AB7EE007AF4EEC77AF1EE10FA31DD21
:10180800F7EE006A97ED0D7AC6EE877AC7ED0D7A86
:101818007B6BBB62184B7B6201233B6201233B62FB
:1018280014E097ED0A7AD7ED097A27EE277A3B6A12
:10183800C3F10903114A9B001344D3ED007A77EEF4
:10184800277AC7ED097A3B6A01333B623B6A092B69
:10185800E7DDD7ED097A9FED0A7A77EE677AC7ED6B
:101868000B7A31E07B6BFB61034BBB6101237B612E
:1018780001237B611DE000BFA59204BDECB2000806
:10188800DB0FC93FDB0F494097ED077AD7ED067AA2
:1018980027EE277A7B69C3F109032F4A9B0013447B
:1018A800D3ED007A77EE277AC7ED067A7B690133A4
:1018B8007B617B69092BE7DDD7ED067A97ED0B7A1B
:1018C80077EE277AC7ED0B7A3B6B002B05D0D7ED67
:1018D8000B7AF1EE677AC7ED0B7AD7ED0B7A9FEDAD
:1018E8001F7A77EEC77A7B68C3ED007A0BE0FB6856
:1018F80003F00043002B03D07B68194A1A6002E00A
:101908007B68184A1A60002320E0D7ED027AF5EECA
:10191800407AF1EE10FA17D1D7ED037AF5EEC07AD6
:10192800F1EE10FA04DD7B680F4A1A6000230DE01F
:10193800D7ED037AF5EEC07AF1EE10FA04D57B689C
:101948000A4A1A60002301E06FF00303184684373F
:10195800BD465DF8047B7047ECB20008DB0F4940D8
:10196800DB0F49C0DB0F4940DB0FC93FDB0FC9BFA5
:1019780080B485B000AFF8607B600B467B8113466E
:101988003B81FB687A891A80FB683A895A80FB6830
:101998007A685A6000BF1437BD465DF8047B70470B
:1019A80080B499B000AFF860B9607A60FB681B88B2
:1019B800BB62FB685B887B62FB685B683B62BB6AF7
:1019C8009B08A7F844300023A7F846307B68BB641F
:1019D8009AE04FF00003FB634FF00003BB634FF046
:1019E80000037B634FF000033B63BB68FB647B6AC7
:1019F800A7F84230B7F846309B003A6A1344FB65B3
:101A08007B6A9B00FA6D1344BB657B6A9B00BA6DC9
:101A180013447B657B6A9B007A6D13443B654DE0FC
:101A2800FB6C1A1DFA641B68FB61FB6D1A1DFA65D5
:101A38001B687B6197ED057AD7ED077A67EE277A01
:101A480097ED0F7A77EE277AC7ED0F7ABB6D1A1DDF
:101A5800BA651B687B6197ED057AD7ED077A67EE63
:101A6800277A97ED0E7A77EE277AC7ED0E7A7B6D97
:101A78001A1D7A651B687B6197ED057AD7ED077AA1
:101A880067EE277A97ED0D7A77EE277AC7ED0D7A0C
:101A98003B6D1A1D3A651B687B6197ED057AD7ED9A
:101AA800077A67EE277A97ED0C7A77EE277AC7EDF3
:101AB8000C7AB7F84230013BA7F84230B7F8423009
:101AC800002BADD1BB6C1A1DBA64FA6B1A60BB6CE3
:101AD8001A1DBA64BA6B1A60BB6C1A1DBA647A6BA9
:101AE8001A60BB6C1A1DBA643A6B1A607B6A9BB2A7
:101AF8009B009AB2B7F846301344A7F84630B7F8B7
:101B08004430013BA7F84430B7F84430002B7FF449
:101B180060AFBB6A9BB203F00303A7F8443077E0D9
:101B28004FF00003FB62BB68FB64B7F846309B00CC
:101B38003A6A1344FB657B6A5B08A7F8423030E0D9
:101B4800FB6C1A1DFA641B68FB61FB6C1A1DFA64B6
:101B58001B68BB61FB6D1A1DFA651B687B61FB6D19
:101B68001A1DFA651B683B6197ED057AD7ED077A70
:101B780067EE277A97ED0B7A77EE277AC7ED0B7A1F
:101B880097ED047AD7ED067A67EE277A97ED0B7A08
:101B980077EE277AC7ED0B7AB7F84230013BA7F802
:101BA8004230B7F84230002BCAD17B6A9BB203F0AF
:101BB8000103A7F8423016E0FB6D1A1DFA6593ED94
:101BC800007AFB6C1A1DFA64D3ED007A67EE277A67
:101BD80097ED0B7A77EE277AC7ED0B7AB7F8423094
:101BE800013BA7F84230B7F84230002BE4D1BB6C78
:101BF8001A1DBA64FA6A1A607B6A9AB2B7F8463054
:101C08001344A7F84630B7F84430013BA7F84430EE
:101C1800B7F84430002B83D100BF00BF6437BD46FE
:101C28005DF8047B704780B485B000AFF860B96098
:101C38007A60FB6893ED007ABB68D3ED007A27EEF3
:101C4800277AFB680433D3ED006ABB680433D3ED0D
:101C5800007A66EEA77A37EE677AFB680833D3ED29
:101C6800006ABB680833D3ED007A66EEA77A37EED0
:101C7800677AFB680C33D3ED006ABB680C33D3ED8D
:101C8800007A66EEA77A77EE677A7B68C3ED007A0A
:101C9800FB6893ED007ABB680433D3ED007A27EE36
:101CA800277AFB680433D3ED006ABB68D3ED007A6A
:101CB80066EEA77A37EE277AFB680833D3ED006A19
:101CC800BB680C33D3ED007A66EEA77A37EE277A35
:101CD800FB680C33D3ED006ABB680833D3ED007A98
:101CE80066EEA77A7B68043377EE677AC3ED007AED
:101CF800FB6893ED007ABB680833D3ED007A27EED2
:101D0800277AFB680833D3ED006ABB68D3ED007A05
:101D180066EEA77A37EE277AFB680C33D3ED006AB4
:101D2800BB680433D3ED007A66EEA77A37EE277ADC
:101D3800FB680433D3ED006ABB680C33D3ED007A3B
:101D480066EEA77A7B68083377EE677AC3ED007A88
:101D5800FB6893ED007ABB680C33D3ED007A27EE6D
:101D6800277AFB680C33D3ED006ABB68D3ED007AA1
:101D780066EEA77A37EE277AFB680433D3ED006A5C
:101D8800BB680833D3ED007A66EEA77A37EE277A78
:101D9800FB680833D3ED006ABB680433D3ED007ADF
:101DA80066EEA77A7B680C3377EE677AC3ED007A24
:101DB80000BF1437BD465DF8047B704780B582B01C
:101DC80000AF786039600F4A7B681A607B684FF013
:101DD8007E525A607B684FF000029A607B684FF031
:101DE8000002DA607B684FF000021A617B680433F6
:101DF80010223968184608F071FE7B6818460837C3
:101E0800BD4680BD1CB3000880B582B000AF7860C5
:101E180039607B68043310221946386808F05EFE82
:101E280000BF0837BD4680BD80B487B000AF78607A
:101E380087ED000AD7ED007AF5EEC07AF1EE10FAD8
:101E480002D54FF0000327E0D7ED007AB6EE007A0E
:101E580067EE877AC7ED057A3B683B613B69FB60B3
:101E6800FB685A10114B9B1AFB60FB683B6197EDAE
:101E7800047AD7ED057A27EE277AD7ED047A67EE4C
:101E8800277AB7EE087A37EE677AD7ED047A67EEE5
:101E9800277AC7ED047A3B6907EE903AB0EE670AF5
:101EA8001C37BD465DF8047B704700BFDF59375FBC
:101EB80080B483B000AF7860044A7B681A607B689E
:101EC80018460C37BD465DF8047B70471CB3000804
:101ED80080B582B000AF78607868FFF7E9FF142119
:101EE800786808F055FB7B6818460837BD4680BD02
:101EF80080B586B000AF7861396187ED030AC7ED18
:101F0800020A87ED011A7B6939691846FFF756FFFF
:101F1800124A7B691A607B69FA685A61D7ED027ABE
:101F280077EEA77A7B69C3ED067AD7ED017A77EE6B
:101F3800A77A7B69C3ED077A7B694FF000021A62C2
:101F48007B694FF000025A627B694FF000029A6287
:101F58007B6918461837BD4680BD00BF30B30008FE
:101F680080B5A0B000AFF860B9607A604FF00003A8
:101F7800BB674FF00003BB664FF00003FB664FF0F2
:101F880000033B67BB68D3ED007AF5EE407AF1EECB
:101F980010FA11D1BB680433D3ED007AF5EE407A1C
:101FA800F1EE10FA08D1BB680833D3ED007AF5EEEC
:101FB800407AF1EE10FA79D0FA68BB6893ED007AAE
:101FC800BB68D3ED007A27EE277ABB680433D3EDDC
:101FD800006ABB680433D3ED007A66EEA77A37EE61
:101FE800277ABB680833D3ED006ABB680833D3EDA2
:101FF800007A66EEA77A77EE277AB0EE670A10467F
:10200800FFF712FF87ED1E0A07F120030322194686
:1020180097ED1E0AB868FFF75FFAFB6893ED027A3E
:10202800FB68D3ED047A27EE277AFB68D3ED016AC3
:10203800FB68D3ED037A66EEA77A77EE677AC7ED89
:10204800057AFB6893ED037AFB68D3ED047A27EEF3
:10205800277AFB68D3ED016AFB68D3ED027A66EE56
:10206800A77A77EE277AC7ED067AFB6893ED027AAE
:10207800FB68D3ED027A67EE277AB6EE007A37EE80
:10208800677AFB68D3ED036AFB68D3ED037A66EEE3
:10209800A77A77EE677AC7ED077A07F1680207F142
:1020A800140107F12003184600F0C9F807F15C0392
:1020B80000221A605A609A604FF000037B67002381
:1020C80087F87F305DE097F87F30FA6808339B0027
:1020D800134493ED007AFB68D3ED076A97F87F30D5
:1020E8009B0080333B44183BD3ED007A26EEA76A69
:1020F800FB68D3ED056AC6EE267A97F87F3077EE4F
:10210800277AFA6808339B001344C3ED007AFB680A
:1021180093ED067A97F87F309B0080333B44183B59
:10212800D3ED007A27EE277A97F87F30FA680833DC
:102138009B001344D3ED007A77EE277AC7ED1D7A1A
:1021480097F87F309B007A68134493ED007AD7EDB7
:102158001D7A77EE277AB6EE007A67EE876AFB6813
:1021680093ED057A97F87F30C6EE877A9B00803327
:102178003B44243BC3ED007A97F87F30013387F85E
:102188007F3097F87F30022B9DD907F14C0300224E
:102198001A605A609A60DA6007F13C0300221A60FC
:1021A8005A609A60DA60FB6D3B643B6E7B647B6EC1
:1021B800BB64FB68043307F14C0207F13C01184685
:1021C800FFF731FDFB68181D07F12C0207F14C01E0
:1021D8000423FFF759F9FB6897ED0B7AD7ED0B7AD3
:1021E80027EE277AD7ED0C6AD7ED0C7A66EEA77A38
:1021F80037EE277AD7ED0D6AD7ED0D7A66EEA77A16
:1022080037EE277AD7ED0E6AD7ED0E7A66EEA77A03
:1022180077EE277AB0EE670A1846FFF705FE87EDD6
:102228001E0AFB68191D07F12C03042297ED1E0AEC
:102238001846FFF751F900BF8037BD4680BD80B40E
:1022480085B000AFF860B9607A60FB68043393ED3D
:10225800007ABB680833D3ED007A27EE277ABB688B
:102268000433D3ED006AFB680833D3ED007A66EED9
:10227800A77A77EE677A7B68C3ED007ABB6893ED3F
:10228800007AFB680833D3ED007A27EE277AFB68DB
:10229800D3ED006ABB680833D3ED007A66EEA77AFF
:1022A8007B68043377EE677AC3ED007AFB6893EDB9
:1022B800007ABB680433D3ED007A27EE277ABB682F
:1022C800D3ED006AFB680433D3ED007A66EEA77A93
:1022D8007B68083377EE677AC3ED007A00BF14375E
:1022E800BD465DF8047B704780B582B000AF78606A
:1022F800054A7B681A607B681846FFF7D9FD7B683A
:1023080018460837BD4680BD30B3000880B582B096
:1023180000AF78607868FFF7E7FF2C21786808F04D
:1023280037F97B6818460837BD4680BD80B483B04E
:1023380000AF7860044A7B681A607B6818460C37DF
:10234800BD465DF8047B704768B3000880B582B06D
:1023580000AF78607868FFF7E9FF4C21786808F0EB
:1023680017F97B6818460837BD4680BD80B582B02E
:1023780000AF78607B6898687B68DB689BB2002256
:10238800194603F043FD00BF0837BD4680BD80B540
:1023980082B000AF78607B6898687B68DB689BB226
:1023A8000122194603F032FD00BF0837BD4680BD43
:1023B80080B582B000AF78607B6818697B685B691C
:1023C8009BB20022194603F021FD00BF0837BD4625
:1023D80080BD80B582B000AF78607B6818697B6883
:1023E8005B699BB20122194603F010FD00BF083754
:1023F800BD4680BDB0B584B000AFF860B9607A6002
:102408003B60224AFB681A60BB681A68FB685A601E
:10241800BB685A68FB689A60BB689A68FB68DA60B0
:10242800BB68DA68FB681A61BB681A69FB685A619D
:10243800FB683A6818331068186012791A71FB68DB
:10244800134A03F1200415460FCD0FC40FCD0FC456
:102458002B682360FB68203324227968184608F02B
:102468003DFBFB6803F14400FB6820330322032192
:10247800FFF77EFAF868FFF78AFFF868FFF7A9FF09
:10248800FB6818461037BD46B0BD00BF68B30008EA
:1024980068AE000880B584B000AF78600B46FB706A
:1024A80000237B73FB781946786800F0FCF8034634
:1024B800BB7307F10E0207F10D031146184600F031
:1024C800EFFBFB781946786800F050F80346FB7379
:1024D80007F10F0207F10D031146184600F0E0FB63
:1024E8007B7B18461037BD4680BD80B588B000AFED
:1024F800F860B9607A603B60BB68002B10D002209E
:1025080000F0E2FB07F114031946F86800F064FADA
:10251800FB68443307F11401BA681846FFF740FA1C
:102528007B68002B10D0022000F0CEFB07F11403CB
:102538001946F86800F00EFAFB68443307F11401F5
:102548007A681846FFF72CFA3B68002B0AD002205D
:1025580000F0BAFBF86800F081FAF0EE407A3B68C8
:10256800C3ED007A00BF2037BD4680BD80B586B078
:1025780000AF78600B46FB70022000F0A5FB00213D
:10258800786800F02BFB022000F09EFB00217868A1
:1025980000F024FB03461E2B14BF01230023DBB2EB
:1025A800002B01D001237AE0FB78002B0CD078684F
:1025B80000F000F90346002B14BF01230023DBB20F
:1025C800002B01D004236AE0022000F07DFBB62234
:1025D8007E21786800F0E4FA022001F007FA022070
:1025E80000F072FB0021786800F0F8FA7B689B7EA7
:1025F8005BB21B015AB27B685B7E5BB213435BB272
:10260800BB7507F10C0300221A605A6041233B7323
:102618004023BB7340F27D433B827C237B827B68F3
:102628001B7E7B73BB7DFB730023FB7533E00220AD
:1026380000F04AFBFB7D5B0018333B4413F80C1C8D
:10264800FB7D5B0018333B4413F80B3C1A46786853
:1026580000F0A6FA782000F037FBFB7D5B0018330A
:102668003B4413F80C3C1946786800F0B7FA034667
:102678001A46FB7D5B0018333B4413F80B3C9A4227
:1026880014BF01230023DBB2002B01D0102306E086
:10269800FB7D0133FB75FB7D032BC8D9002318464E
:1026A8001837BD4680BD80B584B000AF78600B4652
:1026B800FB70022000F008FB0021786800F01EFA89
:1026C80003460F2B14BF01230023DBB2002B01D0DC
:1026D80002236AE0FB78002B0CD0786800F014F92C
:1026E8000346002B14BF01230023DBB2002B01D0CB
:1026F80008235AE0022000F0E7FAB622142178688D
:1027080000F0DEF9012001F071F97B681B7F63F0AE
:102718007F03BB7307F1080300221A609A800F2316
:102728003B721023BB721123BB817B68DB7E7B72FB
:10273800BB7BFB720023FB7333E0022000F0C4FA7A
:10274800FB7B5B0010333B4413F8081CFB7B5B00EE
:1027580010333B4413F8073C1A46786800F0B0F988
:10276800782000F0B1FAFB7B5B0010333B4413F890
:10277800083C1946786800F0C1F903461A46FB7B05
:102788005B0010333B4413F8073C9A4214BF012303
:102798000023DBB2002B01D0202306E0FB7B0133B2
:1027A800FB73FB7B022BC8D9002318461037BD46A4
:1027B80080BD000080B58EB000AF7860504A07F148
:1027C8002C0392E8030083E80300002387F83730DE
:1027D80039E0022000F078FA97F837305B00383398
:1027E8003B4413F80C1C97F837305B0038333B44F4
:1027F80013F80B3C1A46786800F0D2F9782000F0FC
:1028080063FA97F837305B0038333B4413F80C3CD5
:102818001946786800F0E2F903461A4697F8373007
:102828005B0038333B4413F80B3C9A4214BF012336
:102838000023DBB2002B01D004235CE097F837308B
:10284800013387F8373097F83730032BC1D9022086
:1028580001F0CCF80D226D21786800F0A1F9322042
:1028680001F0C4F807F120031946786800F0B4F8BD
:1028780009226D21786800F093F9322001F0B6F84A
:1028880007F114031946786800F0A6F81D4A07F105
:10289800080307CA83E80700002387F8363025E0D5
:1028A80097F836309B0038333B44183B93ED007A59
:1028B80097F836309B0038333B44243BD3ED007AFD
:1028C80037EE677A97F836309B0038333B44303B15
:1028D800D3ED007AB4EEE77AF1EE10FA01D50423CD
:1028E80009E097F83630013387F8363097F83630F4
:1028F800022BD5D9002318463837BD4680BD00BF06
:102908008CAE000894AE000880B584B000AF786043
:10291800022000F0D9F901223C21786800F0D0F8B3
:10292800022000F0D1F93C21786800F0E7F803466E
:10293800FB73FB7B03F00203002BF1D0FB7B03F05E
:102948000403002B01D0082300E0002318461037A9
:10295800BD4680BD80B584B000AF7860396007F1AE
:10296800080306220221786800F0EEF80023FB73C2
:1029780028E07B68DB7E174A9B00134493ED007ABE
:10298800FB7B5B0010333B4413F8083C1AB2FB7B1B
:102998005B00013310333B4413F8083C1BB21B02A5
:1029A8001BB213431BB207EE903AF8EEE77AFB7BB3
:1029B8009B003A68134467EE277AC3ED007AFB7BE5
:1029C8000133FB73FB7B022BD3D900BF00BF103749
:1029D800BD4680BD4CB3000880B584B000AF7860B8
:1029E800396007F1080306221221786800F024F9FB
:1029F8000023FB7328E07B681B7E174A9B00134467
:102A080093ED007AFB7B5B0010333B4413F8083CE2
:102A18001AB2FB7B5B00013310333B4413F8083CCC
:102A28001BB21B021BB213431BB207EE903AF8EE1F
:102A3800E77AFB7B9B003A68134467EE277AC3ED7D
:102A4800007AFB7B0133FB73FB7B022BD3D900BFDE
:102A580000BF1037BD4680BD3CB3000880B584B0C8
:102A680000AF786007F10C0302222221786800F099
:102A7800E3F83B7B1BB2DB001AB27B7B5B09DBB262
:102A88001BB21343FB81B7F90E30B3F5806F04DB3B
:102A9800FB89A3F500639BB2FB81B7F90E3007EE03
:102AA800903AF8EEE77AB4EE007A67EE877AB3EEFA
:102AB800077A77EE877AB0EE670A1037BD4680BD91
:102AC80080B584B000AF78600B46FB701346BB70CE
:102AD800FB783B73BB787B737868FFF769FC7B688E
:102AE800586807F10C010223022204F085F978687E
:102AF800FFF76FFC00BF1037BD4680BD80B586B0BC
:102B080002AF78600B46FB7000233B8155237B7234
:102B1800FB7863F07F03FB70FB783B727868FFF704
:102B280047FC7B68586807F10C0207F1080102238B
:102B38000093022304F0B4FA7868FFF74AFC7B7B21
:102B480018461037BD4680BD80B586B002AFF86024
:102B58007B600B46FB721346BB72F868FFF728FCD4
:102B6800FB7A63F07F03DBB2FB72FB68586807F1FE
:102B78000B010223012204F03FF9FB685868BB7A75
:102B88009BB2022200927A68044904F089FAF86834
:102B9800FFF71FFC00BF1037BD4680BD04000020B2
:102BA80080B584B000AF78600B46FB701346BB70ED
:102BB800FB783B73BB787B737868FFF7D7FB7B6840
:102BC800586807F10C010223022204F015F978680D
:102BD800FFF7DDFB00BF1037BD4680BD80B586B06E
:102BE80002AF78600B46FB7007F1080300210A4624
:102BF8001A800A469A7055237B725523BB72FB785C
:102C080063F07F03FB70FB783B727868FFF7AEFBDD
:102C18007B68586807F10C0207F10801022300934A
:102C2800032304F03DFA7868FFF7B1FBBB7B184635
:102C38001037BD4680BD000080B588B002AFF8608F
:102C48007B600B46FB721346BB720023BB82552385
:102C58007B75FB7A63F07F03FB72FB7A3B75F86840
:102C6800FFF784FBFB68586807F1140102230093FF
:102C780002237A6804F014FAFB685868BB7A9BB29E
:102C8800022200927A68054904F00AFAF868FFF708
:102C98007EFB00BF1837BD4680BD00BF0400002082
:102CA80080B483B000AF786039607B681A783B687D
:102CB8001B781343DAB27B681A7000BF0C37BD4625
:102CC8005DF8047B7047000080B489B000AF78607D
:102CD800234B5B687B617B6807EE903AB8EE677AB6
:102CE800204B1B6807EE903AF8EE676A9FED1E6A64
:102CF800C6EE867A67EE277AFCEEE77A17EE903A08
:102D08003B61174B9B68FB610023FB600023BB61A1
:102D18001BE0134B9B68FB60FA68FB699A4214D06E
:102D2800FA68FB699A4206D2FA69FB68D31ABA694B
:102D38001344BB6107E07A69FB68D21AFB69134444
:102D4800BA691344BB61FB68FB61BA693B699A4283
:102D5800DFD300BF00BF2437BD465DF8047B704752
:102D680010E000E0000000200024744980B485B021
:102D780000AF786039603B681B781AB23B68013352
:102D88001B781BB21B021BB213431BB29BB2C3F3CB
:102D98000A03FB81FB897F4A12889B1A07EE903A47
:102DA800B8EEE77A7C4BD3ED007A67EE277A7B683A
:102DB800C3ED047A3B6801331B78DB08DBB21AB237
:102DC8003B6802331B781BB25B011BB213431BB277
:102DD8009BB2C3F30A03FB81FB896E4A12889B1AD4
:102DE80007EE903AB8EEE77A6B4BD3ED007A67EED0
:102DF800277A7B68C3ED037A3B6802331B789B090B
:102E0800DBB21AB23B6803331B781BB29B001BB2C0
:102E180013431AB23B6804331B781BB29B021BB2E4
:102E280013431BB29BB2C3F30A03FB81FB89594AC4
:102E380012889B1A07EE903AB8EEE77A564BD3ED14
:102E4800007A67EE277A7B68C3ED027A3B68043321
:102E58001B785B08DBB21AB23B6805331B781BB2E0
:102E6800DB011BB213431BB29BB2C3F30A03FB8102
:102E7800FB89484A12889B1A07EE903AB8EEE77A1F
:102E8800454BD3ED007A67EE277A7B68C3ED017A6C
:102E98003B6810331B781AB23B6811331B781BB29E
:102EA8001B021BB213431BB2FB81FB89394A1288F0
:102EB8009B1A07EE903AB8EEE77A374BD3ED007AD3
:102EC80067EE277A7B68C3ED057A3B6805331B7884
:102ED8009B09DAB27B681A763B6805331B781B09B5
:102EE800DBB203F00303DAB27B685A763B68063339
:102EF8001B781AB23B6807331B781BB21B021BB244
:102F080013431AB27B689A833B6808331B781AB25A
:102F18003B6809331B781BB21B021BB213431AB25E
:102F28007B68DA833B680A331B781AB23B680B3339
:102F38001B781BB21B021BB213431AB27B681A849C
:102F48003B680C331B78002B14BF01230023DAB233
:102F58007B689A763B680D331B78002B14BF0123DE
:102F68000023DAB27B68DA763B680E331B781AB234
:102F78003B680F331B781BB21B021BB213431BB2F7
:102F88009AB27B685A8400BF1437BD465DF8047B4B
:102F9800704700BF0C0000201000002080B58CB0E6
:102FA80000AF786001233B6200237B620123BB6290
:102FB8000E23FB627B68284A934222D10023BB611F
:102FC80000233B6201237B620023BB600023FB607C
:102FD80000233B6100237B610023FB610123BB626B
:102FE80007F108031946786800F042FF0346002BF2
:102FF80014BF01230023DBB2002B28D0FDF790FC7F
:1030080025E07B68154A934221D10123BB61002347
:103018003B6201237B620023BB600023FB6000232B
:103028003B6100237B610123BB620E23FB6107F137
:1030380008031946786800F01BFF0346002B14BFED
:1030480001230023DBB2002B01D0FDF769FC00BF90
:103058003037BD4680BD00BF88000020B00000208A
:1030680080B582B000AF78607B68114A934216D170
:10307800104B114A0021786801F0A6F90346002B8D
:103088000CBF01230023DBB2002B08D00A4B1B68BE
:10309800002B04D108220749084800F08FF80221C4
:1030A800786801F0BFFA00BF0837BD4680BD00BF91
:1030B80088000020AC04002074040020C004002014
:1030C80080B582B000AF78607B680C4A934210D11B
:1030D8000B4B0C4A0121786801F076F90346002B66
:1030E8000CBF01230023DBB2002B1021786801F00C
:1030F80099FA00BF0837BD4680BD00BFB000002068
:10310800B40400209004002080B58AB000AFF860B5
:10311800B9607A60FB7007F1100300221A605A60E8
:103128009A60DA601A615A617B683B610023BB616F
:103138000023FB61FB783B6207F11001054BBA687D
:10314800F86801F027F80346002B00BF2837BD4672
:1031580080BD00BFBC04002080B487B000AFF86019
:1031680087ED020AC7ED010A396097ED017AD7EDBC
:10317800027A77EE677AC7ED057ABB683B61FB6830
:1031880007EE903AB8EEE77AD7ED057A67EE276A48
:1031980001223B6802FA03F3013B07EE903AF8EE8E
:1031A800E77A86EEA77AD7ED047A77EE277AB0EE3B
:1031B800670A1C37BD465DF8047B704780B584B04C
:1031C80000AFF860B9607A607B68082B70D1BB6883
:1031D8001B7803F00F039AB2FB689A80BB681B78D0
:1031E8001B09DBB21A46FB68DA80BB6801331B781F
:1031F8001B02BA68023212781A43FB689A60BB68ED
:1032080003331B781B01BA68043212781209D2B250
:103218001A43FB68DA60BB6804331B781B0203F4AB
:103228007063BA68053212781A43FB681A61FB6842
:103238009B681021F2EE090ABAEE090A1846FFF750
:103248008BFFF0EE407AFB68C3ED057AFB68DB681C
:103258000C21F3EE0E0ABBEE0E0A1846FFF77CFFB0
:10326800F0EE407AFB68C3ED067AFB681B690C2117
:10327800F2EE040ABAEE040A1846FFF76DFFF0EE04
:10328800407AFB68C3ED077ABB6806331B7807EE04
:10329800903AF8EE677AFB68C3ED087ABB680733A3
:1032A8001B7807EE903AF8EE677AFB68C3ED097A67
:1032B80000BF1037BD4680BD80B586B000AF7860CE
:1032C8000B467B8013463B807A883B881344FB82FD
:1032D800FF233B73FF237B73FF23BB73FF23FB7326
:1032E800FF233B74FF237B74FF23BB74FC23FB7415
:1032F800FA8A07F10C0108237868FFF705FF00BF79
:103308001837BD4680BD000080B582B000AF786038
:103318000B467B8013463B807B687A881A807B68E3
:103328003A889A807B680022DA807B6800229A605B
:103338007B680022DA607B6800221A617B684FF0A4
:1033480000025A617B684FF000029A617B684FF077
:103358000002DA617B684FF000021A627B684FF066
:1033680000025A627A883B8819460348FFF7A4FF8F
:1033780000BF0837BD4680BD8800002080B500AF7B
:10338800032200210248FFF7BFFF00BF80BD00BF36
:10339800C004002080B483B000AF78607B6800224E
:1033A8001A707B680C225A707B6808229A707B68B6
:1033B8000122DA707B6802221A717B6818460C3782
:1033C800BD465DF8047B7047B0B598B000AF2E4B92
:1033D80007F138041D460FCD0FC42B6823602B4B13
:1033E80007F114041D460FCD0FC40FCD0FC42B6871
:1033F80023604FF07C53FB654FF00003BB654FF033
:103408007E537B604FF00003BB604FF00003FB600E
:103418004FF000033B611E4B7B654C2007F0BAF868
:1034280003461C4607F14C0300221A601A7107F183
:103438004C031846FFF7AEFF07F14C0307F11402DF
:1034480007F138012046FEF7D5FF124B1C60114BDF
:103458001B6800211846FFF71DF82C2007F09AF882
:1034680003461C463B1D97ED161AD7ED170A97ED34
:10347800150A19462046FEF73BFD074B1C6000BFA6
:103488006037BD46B0BD00BFA0AE0008B4AE0008AE
:1034980000007A44E8040020EC04002080B500AF66
:1034A8000E4B18680E4B0F4A0F49FFF71EF80F4BCB
:1034B8001B681B6808331B680C4A1068094A0A49CC
:1034C80098470A4B1B680A491846FEF79DFC0949AC
:1034D800074800F083F800BF80BD00BFE804002063
:1034E80008050020FC040020F0040020EC04002063
:1034F8000C0500201C05002080B582B000AF344BBD
:10350800D3ED007A9FED337A67EE877AFDEEE77A9E
:1035180017EE903A1BB21B121BB2DBB23B702C4B5E
:10352800D3ED007A9FED2B7A67EE877AFDEEE77A86
:1035380017EE903A1BB2DBB27B70254BD3ED017AC4
:103548009FED247A67EE877AFDEEE77A17EE903AD8
:103558001BB21B121BB2DBB2BB701D4BD3ED017A41
:103568009FED1C7A67EE877AFDEEE77A17EE903AC0
:103578001BB2DBB2FB70164BD3ED027A9FED157AC6
:1035880067EE877AFDEEE77A17EE903A1BB21B12C8
:103598001BB2DBB23B710E4BD3ED027A9FED0D7A75
:1035A80067EE877AFDEEE77A17EE903A1BB2DBB248
:1035B8007B710023BB710023FB713946082350221D
:1035C8000548FFF7A1FD00BF0837BD4680BD00BF15
:1035D8001C05002000401C468800002090B585B0DE
:1035E80000AF786039607B6893ED007A7B680433BC
:1035F800D3ED007A27EE277A7B680833D3ED006A8B
:103608007B680C33D3ED007A66EEA77A37EE276A2B
:103618007B6893ED007A7B68D3ED007A27EE277AF2
:103628007B680C33D3ED006A7B680C33D3ED007AEA
:1036380066EEA77A77EE277AB6EE007A77EEC77A43
:103648003B6808331846F0EE670AB0EE460AFDF705
:1036580069FF7B6893ED007A7B680833D3ED007AC5
:1036680027EE277A7B680C33D3ED006A7B68043336
:10367800D3ED007A66EEA77A77EE677A77EEA77AC7
:10368800C7ED037AD7ED037AB7EE007AF4EEC77A7E
:10369800F1EE10FA03DD4FF07E53FB600AE0D7ED40
:1036A800037ABFEE007AF4EEC77AF1EE10FA01D58C
:1036B800214BFB603B681C1D97ED030A06F086FF53
:1036C800F0EE407AC4ED007A7B6893ED007A7B686F
:1036D8000C33D3ED007A27EE277A7B680433D3EDD9
:1036E800006A7B680833D3ED007A66EEA77A37EE76
:1036F800276A7B6893ED007A7B68D3ED007A27EE22
:10370800277A7B680433D3ED006A7B680433D3EDF2
:10371800007A66EEA77A77EE277AB6EE007A77EE29
:10372800C77A3868F0EE670AB0EE460AFDF7FAFE87
:1037380000BF1437BD4690BD000080BF80B483B081
:1037480000AF7860044A7B681A607B6818460C37BB
:10375800BD465DF8047B704778B3000880B483B039
:1037680000AF7860044A7B681A607B6818460C379B
:10377800BD465DF8047B704778B3000880B582B019
:1037880000AF78607868FFF7E9FF2421786806F0D1
:10379800FFFE7B6818460837BD4680BD98B500AF68
:1037A800242006F0F7FE03461C462046FFF7C6FF16
:1037B800014B1C6000BF98BD4005002080B500AFDC
:1037C800FFF7ECFF1048FFF7E9FB0F4800F09EFCFD
:1037D80002210D4800F026FF0C48FFF7DFFB0B48DD
:1037E80000F094FC1021094800F01CFF122208493F
:1037F800084805F09DFDFFF7E7FDFFF7BFFD064808
:1038080003F0F8FF00BF80BD88000020B000002052
:103818002C050020640200208C01002080B500AF38
:10382800094802F097FB094B1B680133074A1360EC
:10383800064B1B68B3F57A7F03D9FFF72FFEFFF716
:103848005BFE00BF80BD00BFDC0000202805002013
:1038580080B582B000AF78607B68044A934201D19A
:10386800FFF7DCFF00BF0837BD4680BD8C01002094
:1038780080B582B000AF78600B467B807B680A4ACF
:1038880093420DD17B88122B05D1084B1B68084940
:103898001846FFF76BFA12220549034805F048FD60
:1038A80000BF0837BD4680BD6402002040050020E7
:1038B8002C050020DFF834D0FDF7EEF90C480D494F
:1038C8000D4A002302E0D458C4500433C4188C4273
:1038D800F9D30A4A0A4C002301E013600432A242D9
:1038E800FBD307F0D5F8FCF78DFF704700000220E6
:1038F800000000206C0000209CB300086C00002031
:1039080094060020FEE7000080B500AF0E4B1B6850
:103918000D4A43F4007313600B4B1B680A4A43F4C7
:1039280080631360084B1B68074A43F48073136075
:10393800032001F09FF90F2000F008F8FDF7A0F828
:103948000023184680BD00BF003C024080B582B00D
:1039580000AF7860124B1A68124B1B7819464FF467
:103968007A73B3FBF1F3B2FBF3F3184601F0E6F90F
:103978000346002B01D001230EE07B680F2B0AD8E9
:10398800002279684FF0FF3001F094F9064A7B680D
:103998001360002300E0012318460837BD4680BDA8
:1039A80000000020180000201400002080B400AFA0
:1039B800064B1B781A46064B1B681344044A1360CF
:1039C80000BFBD465DF8047B704700BF18000020AB
:1039D8004405002080B400AF034B1B681846BD4661
:1039E8005DF8047B704700BF4405002080B584B0B3
:1039F80000AF7860FFF7EEFFB8607B68FB60FB689C
:103A0800B3F1FF3F05D00A4B1B781A46FB681344F5
:103A1800FB6000BFFFF7DEFF0246BB68D31AFA68F7
:103A28009A42F7D800BF00BF1037BD4680BD00BF1F
:103A38001800002080B584B000AF78607B68002B48
:103A480001D101230FE27B681B68914A934209D098
:103A58007B681B688F4A934204D04FF48F718E485D
:103A6800FCF764FF7B681B7E002B08D07B681B7EFD
:103A7800012B04D040F21F118748FCF757FF7B68E1
:103A88005B7E002B08D07B685B7E012B04D04FF453
:103A980090718148FCF74AFF7B689B7E002B08D019
:103AA8007B689B7E012B04D040F221117A48FCF7F9
:103AB8003DFF7B68DB7E002B08D07B68DB7E012B1B
:103AC80004D04FF491717448FCF730FF7B681B7F7A
:103AD800002B08D07B681B7F012B04D040F22311F8
:103AE8006D48FCF723FF7B685B7F002B08D07B6861
:103AF8005B7F012B04D04FF492716748FCF716FFE7
:103B08007B689B68002B13D07B689B68B3F1804F60
:103B18000ED07B689B68B3F1004F09D07B689B6827
:103B2800B3F1404F04D040F225115B48FCF7FEFE8C
:103B38007B68DB68002B13D07B68DB68B3F1807F80
:103B48000ED07B68DB68B3F1007F09D07B68DB6847
:103B5800B3F1407F04D04FF493714F48FCF7E6FE71
:103B68007B681B69002B4FD07B681B69B3F5803FCE
:103B78004AD07B681B69B3F5003F45D07B681B6959
:103B8800B3F5403F40D07B681B69B3F5802F3BD02D
:103B98007B681B69B3F5A02F36D07B681B69B3F52A
:103BA800C02F31D07B681B69B3F5E02F2CD07B6820
:103BB8001B69B3F5002F27D07B681B69B3F5102F5D
:103BC80022D07B681B69B3F5202F1DD07B681B6949
:103BD800B3F5302F18D07B681B69B3F5402F13D08D
:103BE8007B681B69B3F5502F0ED07B681B69B3F552
:103BF800602F09D07B681B69B3F5702F04D040F2A1
:103C080027112548FCF792FE7B685B69002B27D0BB
:103C18007B685B69B3F5801F22D07B685B69B3F56D
:103C2800001F1DD07B685B69B3F5401F18D07B6807
:103C38005B69B3F5800F13D07B685B69B3F5A00FA0
:103C48000ED07B685B69B3F5C00F09D07B685B69F0
:103C5800B3F5E00F04D04FF494710F48FCF766FEFB
:103C68007B685B68002B04D07B685B68B3F5806F6A
:103C780004D940F229110848FCF758FE7B6893F8EC
:103C88002030DBB2002B09D17868FCF745FB05E052
:103C98000064004000680040D8AE00087B681B68DC
:103CA8001A687B681B6842F001021A60FFF792FEEF
:103CB800F86012E0FFF78EFE0246FB68D31A0A2B63
:103CC8000BD97B685B6A43F400327B685A627B6875
:103CD800052283F820200123C5E07B681B685B6808
:103CE80003F00103002BE5D07B681B681A687B682A
:103CF8001B6822F002021A60FFF76CFEF86012E0FF
:103D0800FFF768FE0246FB68D31A0A2B0BD97B68BB
:103D18005B6A43F400327B685A627B68052283F849
:103D2800202001239FE07B681B685B6803F0020387
:103D3800002BE5D17B681B7E012B08D17B681B68B3
:103D48001A687B681B6842F080021A6007E07B688B
:103D58001B681A687B681B6822F080021A607B68FF
:103D68005B7E012B08D17B681B681A687B681B681F
:103D780042F040021A6007E07B681B681A687B689B
:103D88001B6822F040021A607B689B7E012B08D1D9
:103D98007B681B681A687B681B6842F020021A60FF
:103DA80007E07B681B681A687B681B6822F02002A2
:103DB8001A607B68DB7E012B08D17B681B681A6858
:103DC8007B681B6822F010021A6007E07B681B689A
:103DD8001A687B681B6842F010021A607B681B7FB8
:103DE800012B08D17B681B681A687B681B6842F046
:103DF80008021A6007E07B681B681A687B681B6802
:103E080022F008021A607B685B7F012B08D17B686F
:103E18001B681A687B681B6842F004021A6007E096
:103E28007B681B681A687B681B6822F004021A60AA
:103E38007B689A687B68DB681A437B681B691A434E
:103E48007B685B6942EA03017B685B685A1E7B6892
:103E58001B680A43DA617B6800225A627B68012288
:103E680083F82020002318461037BD4680BD00BFC8
:103E780080B586B000AF786039607B681B687B616D
:103E88007B6893F82030FB74FB7C012B03D0FB7C10
:103E9800022B40F02C813B681B68B3F5803F04D3AC
:103EA80040F252319748FCF741FD3B685B68B3F537
:103EB800803F04D340F253319248FCF737FD3B680A
:103EC8009B68B3F5803F04D34FF455718D48FCF7D8
:103ED8002DFD3B68DB68B3F5803F04D340F25531D4
:103EE8008848FCF723FD3B689B69002B08D03B689A
:103EF8009B69012B04D040F256318248FCF716FD2D
:103F08003B68DB69002B08D03B68DB69012B04D0D8
:103F180040F257317B48FCF709FD3B681B69002BD1
:103F280008D03B681B69012B04D04FF456717548C3
:103F3800FCF7FCFC3B681B6A002B08D03B681B6A3B
:103F4800012B04D040F259316E48FCF7EFFC6E4B60
:103F58007B613B685B691B2B04D94FF45D71694831
:103F6800FCF7E4FC3B685B6A1B2B04D940F2753113
:103F78006448FCF7DBFC7B69D3F8003243F00102AC
:103F88007B69C3F800227B69D3F8003223F47C52A2
:103F98007B69C3F800227B69D3F800223B685B6A1F
:103FA8001B021A437B69C3F800223B685B6903F074
:103FB8001F03012202FA03F3FB607B69D3F81C227A
:103FC800FB68DB431A407B69C3F81C223B68DB694A
:103FD800002B23D17B69D3F80C22FB68DB431A4002
:103FE8007B69C3F80C223B68DB6819043B685B6893
:103FF8009BB23A68526919437B69483243F83210D8
:104008003B689B6819043B681B689AB23B685B690C
:104018000A4379694833DB000B445A603B68DB6923
:10402800012B22D17B69D3F80C22FB681A437B69E8
:10403800C3F80C223B681B6819043B685B689BB299
:104048003A68526919437B69483243F832103B6831
:104058009B6819043B68DB689AB23B685B690A4352
:1040680079694833DB000B445A603B689B69002B35
:1040780009D17B69D3F80422FB68DB431A407B69CA
:10408800C3F8042207E07B69D3F80422FB681A43CB
:104098007B69C3F804223B681B69002B09D17B6943
:1040A800D3F81422FB68DB431A407B69C3F8142257
:1040B80007E07B69D3F81422FB681A437B69C3F8CD
:1040C80014223B681B6A012B07D17B69D3F81C2299
:1040D800FB681A437B69C3F81C227B69D3F800325A
:1040E80023F001027B69C3F80022002306E07B6805
:1040F8005B6A43F480227B685A62012318461837AA
:10410800BD4680BDD8AE00080064004080B584B0CC
:1041180000AF78607B6893F82030DBB2012B2ED19A
:104128007B68022283F820207B681B681A687B68FA
:104138001B6822F001021A60FFF74CFCF86012E0DD
:10414800FFF748FC0246FB68D31A0A2B0BD97B6899
:104158005B6A43F400327B685A627B68052283F805
:104168002020012312E07B681B685B6803F00103D1
:10417800002BE5D17B6800225A62002306E07B68A9
:104188005B6A43F400227B685A62012318461037A1
:10419800BD4680BD80B588B000AFF860B9607A6070
:1041A8003B60FB6893F82030FB77FB681B689B68D3
:1041B800BB61BB689B68002B08D0BB689B68042B5D
:1041C80004D040F2EA417F48FCF7B0FBBB68DB68EB
:1041D800002B08D0BB68DB68022B04D040F2EB410F
:1041E8007848FCF7A3FBBB681B69082B04D940F28D
:1041F800EC417448FCF79AFBBB689B68002B0AD11A
:10420800BB681B68B3F5006F0FD340F2EF416D48F0
:10421800FCF78CFB09E0BB685B68B3F1005F04D373
:1042280040F2F3416748FCF781FBBB681B7D002B1C
:1042380008D0BB681B7D012B04D040F2F5416148D2
:10424800FCF774FBFB7F012B03D0FB7F022B40F0B4
:10425800AD80BB6903F08063002B0AD1BB6903F012
:104268000063002B05D1BB6903F08053002B00F0DD
:104278009580BB691B0E03F003037B6101227B69F8
:104288009A403B681A60BB689B68002B0DD1BB68DD
:104298001B685A05BB68DB68F96809681A437B69BB
:1042A80018331B010B441A600FE0BB685B68DA0027
:1042B800BB689B681A43BB68DB68F96809681A43DE
:1042C8007B6918331B010B441A60FB681968BB68CB
:1042D8001A697B6918331B010B4404331A60BB68E5
:1042E8001B7D012B11D1FB681A687B6918331B01F0
:1042F800134404331B68FA68116843F480727B69BD
:1043080018331B010B4404331A607B6807331B788E
:104318001A067B6806331B781B041A437B6805332F
:104328001B781B0213437A68043212781046FA6825
:10433800116843EA00027B691B010B4403F5C6734D
:104348001A607B6803331B781A067B6802331B7874
:104358001B041A437B6801331B781B0213437A68DA
:1043680012781046FA68116843EA00027B691B015B
:104378000B4403F5C4731A60FB681A687B69183329
:104388001B0113441B68FA68116843F001027B693A
:1043980018331B010B441A6000230EE0FB685B6AAC
:1043A80043F40012FB685A62012306E0FB685B6A6B
:1043B80043F48022FB685A62012318462037BD4621
:1043C80080BD00BFD8AE000880B586B000AFF860E9
:1043D800B9607A603B60FB6893F82030FB75BB6876
:1043E800002B07D0BB68012B04D040F2E9518C4860
:1043F800FCF79CFAFB7D012B03D0FB7D022B40F0E0
:104408000381BB68002B0ED1FB681B68DB6803F0D7
:104418000303002B16D1FB685B6A43F40012FB68A8
:104428005A620123F7E0FB681B681B6903F003036A
:10443800002B07D1FB685B6A43F40012FB685A62E1
:104448000123E8E0FB681A68BB681B331B011344AF
:104458001B6803F004027B689A607B689B68002BEA
:104468000CD1FB681A68BB681B331B0113441B681B
:104478005B0DC3F30A027B681A600BE0FB681A68DD
:10448800BB681B331B0113441B68DB0823F0604225
:104498007B685A60FB681A68BB681B331B011344AE
:1044A8001B6803F002027B68DA60FB681A68BB6865
:1044B8001B331B01134404331B6803F00803002B50
:1044C80003D07B6808221A610BE0FB681A68BB6896
:1044D8001B331B01134404331B6803F00F027B6872
:1044E8001A61FB681A68BB681B331B011344043349
:1044F8001B681B0ADAB27B689A61FB681A68BB689A
:104508001B331B01134404331B681B0C9AB27B68D2
:104518005A61FB681A68BB681B01134403F5DC7316
:104528001B68DAB23B681A70FB681A68BB681B0123
:10453800134403F5DC731B681A0A3B680133D2B2D3
:104548001A70FB681A68BB681B01134403F5DC7317
:104558001B681A0C3B680233D2B21A70FB681A68DF
:10456800BB681B01134403F5DC731B681A0E3B6818
:104578000333D2B21A70FB681A68BB681B01134474
:1045880003F5DE731A683B680433D2B21A70FB680D
:104598001A68BB681B01134403F5DE731B681A0A0B
:1045A8003B680533D2B21A70FB681A68BB681B01F6
:1045B800134403F5DE731B681A0C3B680633D2B24A
:1045C8001A70FB681A68BB681B01134403F5DE7395
:1045D8001B681A0E3B680733D2B21A70BB68002BEF
:1045E80008D1FB681B68DA68FB681B6842F0200288
:1045F800DA6007E0FB681B681A69FB681B6842F011
:1046080020021A61002306E0FB685B6A43F48022FB
:10461800FB685A62012318461837BD4680BD00BFA3
:10462800D8AE000880B584B000AF786039607B6888
:1046380093F82030FB733B68114A934204D940F247
:1046480082611048FCF772F9FB7B012B02D0FB7BDF
:10465800022B09D17B681B6859697B681B683A681B
:104668000A435A61002306E07B685B6A43F48022B0
:104678007B685A62012318461037BD4680BD00BFCB
:104688007F8F0300D8AE000880B58AB000AF78608D
:1046980000237B627B681B685B693B627B681B68E5
:1046A8005B68FB617B681B689B68BB617B681B68F8
:1046B800DB687B617B681B681B693B617B681B68E7
:1046C8009B69FB603B6A03F00103002B7CD0BB694C
:1046D80003F00103002B23D07B681B6801229A603A
:1046E800BB6903F00203002B03D0786800F083F95C
:1046F80016E0BB6903F00403002B04D07B6A43F483
:1047080000637B620CE0BB6903F00803002B04D054
:104718007B6A43F480537B6202E0786800F089F991
:10472800BB6903F48073002B24D07B681B684FF4AB
:1047380080729A60BB6903F40073002B03D0786819
:1047480000F063F916E0BB6903F48063002B04D022
:104758007B6A43F400537B620CE0BB6903F400639B
:10476800002B04D07B6A43F480437B6202E07868C4
:1047780000F069F9BB6903F48033002B24D07B680F
:104788001B684FF480329A60BB6903F40033002B36
:1047980003D0786800F043F916E0BB6903F480237E
:1047A800002B04D07B6A43F400437B620CE0BB69B6
:1047B80003F40023002B04D07B6A43F480337B622C
:1047C80002E0786800F049F93B6A03F00803002B1F
:1047D8000CD07B6903F01003002B07D07B6A43F4ED
:1047E80000737B627B681B681022DA603B6A03F007
:1047F8000403002B0BD07B6903F00803002B06D0C1
:104808007B681B680822DA60786800F030F93B6A38
:1048180003F00203002B09D07B681B68DB6803F0F8
:104828000303002B02D07868FEF71AFC3B6A03F0FA
:104838004003002B0CD03B6903F01003002B07D07A
:104848007B6A43F480637B627B681B6810221A6171
:104858003B6A03F02003002B0BD03B6903F00803ED
:10486800002B06D07B681B6808221A61786800F064
:1048780008F93B6A03F01003002B09D07B681B681A
:104888001B6903F00303002B02D07868FEF718FCBD
:104898003B6A03F40033002B0BD0FB6903F01003D1
:1048A800002B06D07B681B6810225A60786800F0DD
:1048B800F2F83B6A03F48033002B0BD0FB6903F05A
:1048C8000803002B06D07B681B6808225A607868AA
:1048D80000F0EBF83B6A03F40043002B7BD0FB6944
:1048E80003F00403002B72D03B6A03F48073002B9F
:1048F80008D0FB6803F00103002B03D07B6A43F068
:1049080001037B623B6A03F40073002B08D0FB6849
:1049180003F00203002B03D07B6A43F002037B629F
:104928003B6A03F48063002B08D0FB6803F00403A0
:10493800002B03D07B6A43F004037B623B6A03F4D9
:104948000063002B43D0FB6803F07003002B3ED0BC
:10495800FB6803F07003602B2BD0602B2ED8502BF4
:1049680022D0502B2AD8402B19D0402B26D8302BB8
:1049780010D0302B22D8102B02D0202B05D01DE0D0
:104988007B6A43F008037B6219E07B6A43F01003FB
:104998007B6214E07B6A43F020037B620FE07B6A52
:1049A80043F040037B620AE07B6A43F080037B624A
:1049B80005E07B6A43F480737B6200E000BF7B689C
:1049C8001B689A697B681B6822F070029A617B6891
:1049D8001B6804225A607B6A002B08D07B685A6ADD
:1049E8007B6A1A437B685A62786800F068F800BFEF
:1049F8002837BD4680BD80B483B000AF786000BF63
:104A08000C37BD465DF8047B704780B483B000AFB7
:104A1800786000BF0C37BD465DF8047B704780B4F2
:104A280083B000AF786000BF0C37BD465DF8047BEB
:104A3800704780B483B000AF786000BF0C37BD46C4
:104A48005DF8047B704780B483B000AF786000BF26
:104A58000C37BD465DF8047B704780B483B000AF67
:104A6800786000BF0C37BD465DF8047B704780B4A2
:104A780083B000AF786000BF0C37BD465DF8047B9B
:104A8800704780B483B000AF786000BF0C37BD4674
:104A98005DF8047B704780B483B000AF786000BFD6
:104AA8000C37BD465DF8047B704780B483B000AF17
:104AB800786000BF0C37BD465DF8047B704780B452
:104AC80083B000AF786000BF0C37BD465DF8047B4B
:104AD8007047000080B485B000AF78607B6803F051
:104AE8000703FB600C4BDB68BB60BA684FF6FF033B
:104AF8001340BB60FB681A02BB68134343F0BF63F3
:104B080043F40033BB60044ABB68D36000BF14376A
:104B1800BD465DF8047B704700ED00E080B400AF4F
:104B2800044BDB681B0A03F007031846BD465DF813
:104B3800047B704700ED00E080B483B000AF03460B
:104B4800FB7197F90730002B0BDBFB7903F01F0291
:104B5800074997F907305B09012000FA02F241F88A
:104B6800232000BF0C37BD465DF8047B704700BFAB
:104B780000E100E080B483B000AF03463960FB7108
:104B880097F90730002B0ADB3B68DAB20C4997F932
:104B980007301201D2B20B4483F800230AE03B68C5
:104BA800DAB20849FB7903F00F03043B1201D2B2D1
:104BB8000B441A7600BF0C37BD465DF8047B70477E
:104BC80000E100E000ED00E080B489B000AFF860DB
:104BD800B9607A60FB6803F00703FB61FB69C3F106
:104BE8000703042B28BF0423BB61FB690433062B8E
:104BF80002D9FB69033B00E000237B614FF0FF32E1
:104C0800BB6902FA03F3DA43BB681A407B699A402E
:104C18004FF0FF317B6901FA03F3D9437B680B40FE
:104C2800134318462437BD465DF8047B70470000DF
:104C380080B582B000AF78607B68013BB3F1807FBC
:104C480001D301230FE00A4A7B68013B53600F211F
:104C58004FF0FF30FFF78EFF054B00229A60044BA0
:104C680007221A60002318460837BD4680BD00BFDA
:104C780010E000E080B582B000AF78607B68072B59
:104C88000FD07B68062B0CD07B68052B09D07B687E
:104C9800042B06D07B68032B03D090210448FBF734
:104CA80045FE7868FFF716FF00BF0837BD4680BD90
:104CB8003CAF000880B586B000AF0346B9607A60A3
:104CC800FB7300237B617B680F2B03D9A8210E4857
:104CD800FBF72CFEBB680F2B03D9A9210A48FBF769
:104CE80025FEFFF71BFF78617A68B9687869FFF7D6
:104CF8006BFF024697F90F3011461846FFF73AFF47
:104D080000BF1837BD4680BD3CAF000880B582B0F3
:104D180000AF0346FB7197F90730002B03DABC217B
:104D28000548FBF703FE97F907301846FFF704FF1D
:104D380000BF0837BD4680BD3CAF000880B582B0D3
:104D480000AF78607868FFF773FF034618460837A6
:104D5800BD4680BD80B586B000AF786000237B611A
:104D6800FEF738FE38617B68002B01D1012303E28E
:104D78007B681B688B4A93424ED07B681B688A4AC3
:104D8800934249D07B681B68884A934244D07B6829
:104D98001B68874A93423FD07B681B68854A9342C9
:104DA8003AD07B681B68844A934235D07B681B687D
:104DB800824A934230D07B681B68814A93422BD049
:104DC8007B681B687F4A934226D07B681B687E4AB3
:104DD800934221D07B681B687C4A93421CD07B6835
:104DE8001B687B4A934217D07B681B68794A9342B9
:104DF80012D07B681B68784A93420DD07B681B6889
:104E0800764A934208D07B681B68754A934203D060
:104E1800B7217448FBF78AFD7B685B68002B26D0B6
:104E28007B685B68B3F1007F21D07B685B68B3F176
:104E3800806F1CD07B685B68B3F1C06F17D07B684C
:104E48005B68B3F1006F12D07B685B68B3F1206FC9
:104E58000DD07B685B68B3F1406F08D07B685B68F6
:104E6800B3F1606F03D0B8215E48FBF75FFD7B6844
:104E78009B68002B0BD07B689B68402B07D07B6816
:104E88009B68802B03D0B9215648FBF74FFD7B6800
:104E9800DB68B3F5007F07D07B68DB68002B03D0A5
:104EA800BA215048FBF742FD7B681B69B3F5806F58
:104EB80007D07B681B69002B03D0BB214948FBF74F
:104EC80035FD7B685B69002B0DD07B685B69B3F5AA
:104ED800006F08D07B685B69B3F5805F03D0BC21A5
:104EE8004048FBF723FD7B689B69002B0DD07B684E
:104EF8009B69B3F5005F08D07B689B69B3F5804F69
:104F080003D0BD213748FBF711FD7B68DB69002B17
:104F18000CD07B68DB69B3F5807F07D07B68DB69E1
:104F2800202B03D0BE212F48FBF700FD7B681B6AAE
:104F3800002B12D07B681B6AB3F5803F0DD07B68CD
:104F48001B6AB3F5003F08D07B681B6AB3F5403F86
:104F580003D0BF212348FBF7E9FC7B685B6A002B81
:104F680007D07B685B6A042B03D0C0211D48FBF780
:104F7800DDFC7B685B6A002B64D07B689B6A002B36
:104F880032D07B689B6A012B2ED07B689B6A022BF0
:104F98002AD07B689B6A032B26D0C5211148FBF7D2
:104FA800C5FC21E0106002402860024040600240D9
:104FB800586002407060024088600240A060024071
:104FC800B860024010640240286402404064024015
:104FD800586402407064024088640240A064024041
:104FE800B8640240A4AF00087B68DB6A002B12D0CB
:104FF8007B68DB6AB3F5000F0DD07B68DB6AB3F121
:10500800807F08D07B68DB6AB3F1C07F03D0C621FC
:105018005B48FBF78BFC7B681B6B002B12D07B6813
:105028001B6BB3F5001F0DD07B681B6BB3F5800FAE
:1050380008D07B681B6BB3F5C00F03D0C72150485D
:10504800FBF774FC7B68022283F835207B6800221A
:1050580083F834207B681B681A687B681B6822F019
:1050680001021A600FE0FEF7B5FC02463B69D31A4D
:10507800052B08D97B6820225A657B68032283F8B0
:105088003520032378E07B681B681B6803F0010365
:10509800002BE8D17B681B681B687B617A69394BF8
:1050A80013407B617B685A687B689B681A437B68FE
:1050B800DB681A437B681B691A437B685B691A4380
:1050C8007B689B691A437B68DB691A437B681B6AA8
:1050D80013437A6913437B617B685B6A042B07D1AE
:1050E8007B68DA6A7B681B6B13437A6913437B61BD
:1050F8007B681B687A691A607B681B685B697B61DF
:105108007B6923F007037B617B685B6A7A691343D9
:105118007B617B685B6A042B17D17B689B6A7A6921
:1051280013437B617B68DB6A002B0ED0786800F044
:1051380011FB0346002B08D07B6840225A657B6828
:10514800012283F83520012316E07B681B687A6901
:105158005A61786800F0C8FA0346FB607B68DB6D2B
:105168003F229A40FB689A607B6800225A657B68F8
:10517800012283F83520002318461837BD4680BD24
:10518800A4AF00083F8010F080B586B000AFF8608B
:10519800B9607A603B600023FB75FB689B6D3B61DF
:1051A8003B68002B03D03B68B3F5803F04D340F243
:1051B800CB112748FBF7BAFBFB6893F83430012B77
:1051C80001D1022340E0FB68012283F83420FB6808
:1051D80093F83530DBB2012B2FD1FB68022283F81C
:1051E8003520FB6800225A653B687A68B968F86818
:1051F80000F04CFAFB68DB6D3F229A403B699A60ED
:10520800FB681B681A68FB681B6842F016021A6084
:10521800FB681B6C002B07D0FB681B681A68FB68CF
:105228001B6842F008021A60FB681B681A68FB6872
:105238001B6842F001021A6005E0FB68002283F84F
:1052480034200223FB75FB7D18461837BD4680BD08
:10525800A4AF000880B584B000AF78607B689B6D10
:10526800FB60FEF7B7FBB8607B6893F83530DBB2BC
:10527800022B08D07B6880225A657B68002283F85D
:105288003420012352E07B681B681A687B681B681E
:1052980022F016021A607B681B685A697B681B68D3
:1052A80022F080025A617B681B6C002B03D17B685B
:1052B8009B6C002B07D07B681B681A687B681B688F
:1052C80022F008021A607B681B681A687B681B68F2
:1052D80022F001021A6013E0FEF77CFB0246BB686D
:1052E800D31A052B0CD97B6820225A657B680322C8
:1052F80083F835207B68002283F83420032315E0E7
:105308007B681B681B6803F00103002BE4D17B68F2
:10531800DB6D3F229A40FB689A607B68012283F824
:1053280035207B68002283F8342000231846103784
:10533800BD4680BD80B483B000AF78607B6893F8C9
:105348003530DBB2022B04D07B6880225A650123FA
:105358000CE07B68052283F835207B681B681A6897
:105368007B681B6822F001021A60002318460C377C
:10537800BD465DF8047B704780B586B000AF7860A5
:105388000023BB608E4B1B688E4AA2FB03239B0A3B
:105398007B617B689B6D3B613B691B68FB607B683D
:1053A800DB6D08229A40FB681340002B1AD07B68FB
:1053B8001B681B6803F00403002B13D07B681B6871
:1053C8001A687B681B6822F004021A607B68DB6D30
:1053D80008229A403B699A607B685B6D43F0010242
:1053E8007B685A657B68DB6D01229A40FB68134035
:1053F800002B12D07B681B685B6903F08003002BCD
:105408000BD07B68DB6D01229A403B699A607B6810
:105418005B6D43F002027B685A657B68DB6D042292
:105428009A40FB681340002B12D07B681B681B68EE
:1054380003F00203002B0BD07B68DB6D04229A403B
:105448003B699A607B685B6D43F004027B685A6530
:105458007B68DB6D10229A40FB681340002B43D019
:105468007B681B681B6803F00803002B3CD07B6833
:10547800DB6D10229A403B699A607B681B681B6849
:1054880003F48023002B18D07B681B681B6803F487
:105498000023002B08D17B681B6C002B24D07B6871
:1054A8001B6C786898471FE07B689B6C002B1BD0AF
:1054B8007B689B6C7868984716E07B681B681B685C
:1054C80003F48073002B07D17B681B681A687B681C
:1054D8001B6822F008021A607B681B6C002B03D043
:1054E8007B681B6C786898477B68DB6D20229A4044
:1054F800FB681340002B00F08F807B681B681B68DB
:1055080003F01003002B00F087807B68DB6D2022FE
:105518009A403B699A607B6893F83530DBB2052B7B
:1055280036D17B681B681A687B681B6822F01602F4
:105538001A607B681B685A697B681B6822F08002C6
:105548005A617B681B6C002B03D17B689B6C002B1A
:1055580007D07B681B681A687B681B6822F0080202
:105568001A607B68DB6D3F229A403B699A607B68D2
:10557800012283F835207B68002283F834207B6879
:105588001B6D002B7ED07B681B6D7868984779E08F
:105598007B681B681B6803F48023002B1DD07B6885
:1055A8001B681B6803F40023002B0DD17B685B6C20
:1055B800002B31D07B685B6C786898472CE000BF83
:1055C80000000020B5814E1B7B68DB6B002B23D0CD
:1055D8007B68DB6B786898471EE07B681B681B68F4
:1055E80003F48073002B0FD17B681B681A687B68F3
:1055F8001B6822F010021A607B68012283F83520AC
:105608007B68002283F834207B68DB6B002B03D097
:105618007B68DB6B786898477B685B6D002B32D0C2
:105628007B685B6D03F00103002B22D07B680522A9
:1056380083F835207B681B681A687B681B6822F032
:1056480001021A60BB680133BB607A699A4207D3CA
:105658007B681B681B6803F00103002BF2D100E094
:1056680000BF7B68012283F835207B68002283F81D
:1056780034207B68DB6C002B05D07B68DB6C78689A
:10568800984700E000BF1837BD4680BD80B485B09C
:1056980000AFF860B9607A603B60FB681B681A6805
:1056A800FB681B6822F480221A60FB681B683A6852
:1056B8005A60FB689B68402B08D1FB681B687A68B6
:1056C8009A60FB681B68BA68DA6007E0FB681B68C9
:1056D800BA689A60FB681B687A68DA6000BF14379A
:1056E800BD465DF8047B704780B485B000AF786034
:1056F8007B681B68DBB2103B144AA2FB03231B091F
:10570800FB60134AFB6813441B781A467B68DA650A
:10571800FB68032B09D97B681B6823F47F7323F08C
:1057280003031A1D7B689A6507E07B681B6823F4EE
:105738007F7323F003037A6893657B689B6D184633
:105748001437BD465DF8047B704700BFABAAAAAA10
:1057580080B3000880B485B000AF78600023FB7385
:105768007B689B6ABB607B689B69002B1FD1BB6809
:10577800032B56D801A252F823F000BF9557000812
:10578800A7570008955700082B5800087B68DB6A64
:1057980003F08073002B46D00123FB7343E07B6842
:1057A800DB6AB3F1C07F40D10123FB733DE07B6826
:1057B8009B69B3F5005F21D1BB68032B37D801A2E1
:1057C80052F823F0DD570008E3570008DD570008BA
:1057D800F55700080123FB7330E07B68DB6A03F0B0
:1057E8008073002B25D00123FB7322E07B68DB6AE2
:1057F800B3F1C07F1FD10123FB731CE0BB68022BF0
:1058080003D9BB68032B03D018E00123FB7315E011
:105818007B68DB6A03F08073002B0ED00123FB73D7
:105828000BE000BF0AE000BF08E000BF06E000BFD1
:1058380004E000BF02E000BF00E000BFFB7B1846A9
:105848001437BD465DF8047B704700BF80B588B04B
:1058580000AF7860396000237B6100233B6100233F
:10586800BB617B68384A934223D07B68374A9342AE
:105878001FD07B68364A93421BD07B68354A9342D7
:1058880017D07B68344A934213D07B68334A9342DB
:105898000FD07B68324A93420BD07B68314A9342DF
:1058A80007D07B68304A934203D0AC212F48FBF7DE
:1058B8003DF83B681B689BB2002B04D03B681B6813
:1058C800B3F5803F03D3AD212848FBF72FF83B6899
:1058D8005B68002B35D03B685B68012B31D03B6897
:1058E8005B68112B2DD03B685B68022B29D03B6885
:1058F8005B68122B25D03B685B68B3F5881F20D006
:105908003B685B68B3F5041F1BD03B685B68B3F565
:10591800441F16D03B685B68B3F5901F11D03B68F5
:105928005B68B3F5081F0CD03B685B68B3F5481F8C
:1059380007D03B685B68032B03D0AE210B48FAF70E
:10594800F5FF0023FB6141E2000002400004024031
:1059580000080240000C02400010024000140240FF
:1059680000180240001C02400020024008B0000855
:105978000122FB6902FA03F37B613B681B687A69C1
:1059880013403B613A697B699A4240F01C823B684C
:105998005B6803F00303012B05D03B685B6803F0E9
:1059A8000303022B44D13B68DB68002B0FD03B6814
:1059B800DB68012B0BD03B68DB68022B07D03B6808
:1059C800DB68032B03D0C0218148FAF7AFFF7B685F
:1059D8009B68BB61FB695B00032202FA03F3DB43AC
:1059E800BA691340BB613B68DA68FB695B0002FA7D
:1059F80003F3BA691343BB617B68BA699A607B6831
:105A08005B68BB610122FB6902FA03F3DB43BA69F5
:105A18001340BB613B685B681B0903F00102FB692B
:105A280002FA03F3BA691343BB617B68BA695A6027
:105A38003B685B6803F00303032B27D03B689B6834
:105A4800002B0BD03B689B68012B07D03B689B68F9
:105A5800022B03D0D1215E48FAF768FF7B68DB6828
:105A6800BB61FB695B00032202FA03F3DB43BA69FB
:105A78001340BB613B689A68FB695B0002FA03F359
:105A8800BA691343BB617B68BA69DA603B685B68D3
:105A980003F00303022B40F0C1803B681B69002B15
:105AA80000F098803B681B69092B00F093803B68E5
:105AB8001B69002B00F08E803B681B69002B00F0EF
:105AC80089803B681B69002B00F084803B681B6958
